:1000000010C100003EC100003CC100003AC1000028
:1000100038C1000036C1000034C1000032C1000008
:1000200030C100002EC100002CC100002AC1000018
:1000300028C1000026C1000024C1000022C1000028
:1000400020C100001EC100001CC100001AC1000038
:1000500018C1000016C1000014C10000F2C6000063
:1000600010C10000AAC30000DEC300000AC10000E6
:1000700008C1000006C1000004C1000002C1000068
:1000800000C10000FEC00000FCC00000FAC000007B
:10009000F8C00000F6C00000F4C00000F2C000008C
:1000A000F0C00000EEC00000ECC00000EAC000009C
:1000B000E8C00000E6C00000E4C00000E2C00000AC
:1000C000E0C00000DEC00000DCC00000DAC00000BC
:1000D000D8C00000D6C00000D4C00000D2C00000CC
:1000E000D0C000003A083D082C08300836087408D3
:1000F000410845084B084F08530859085D08610836
:10010000740867086B086F0800000A0B02090C0DE1
:100110000E080703040100000000000000000000BA
:1001200000000000000000000000000000000000CF
:10013000000000001211100000000000000000008C
:1001400000000000000000000000000000000102AC
:1001500010202008081020401020408002010201D9
:100160000804020101020408102040808040201091
:1001700008040201800402018040201008040201EA
:100180000804020101020408102040800102040852
:10019000102040800505050507050808080802022B
:1001A00002020A0A08080404040401010101010111
:1001B00001010303030303030303040707070C0CF4
:1001C0000C0C0C0C0C0C02020202060606060606BB
:1001D00006060B0B0B0B0B0B0B0B00002200250074
:1001E00028002B002E003100340002010000050120
:1001F00008010B0100002100240027002A002D0027
:100200003000330001010000040107010A0142012E
:1002100062024504F004D8096B0B320D9A139A1848
:10022000101D11241FBECFEFD1E2DEBFCDBF00E015
:100230000CBF13E0A0E0B2E0E8EFF0E400E00BBF99
:1002400002C007900D92A832B107D9F724E0A8E2C6
:10025000B3E001C01D92A33DB207E1F712E0C2E294
:10026000D2E000E006C022970109FE010BBF0E9408
:10027000E31DCE30D10780E00807A9F7D8D50C944C
:100280007A20BECE0F9300E020E040E060E083E6FD
:1002900093E07FD360E570E083E493E00E943C0A42
:1002A00088E293E00F910C94C10CEF92FF920F93B0
:1002B0001F93CF93DF9300D000D0CDB7DEB726E0F9
:1002C00040E052EC61E070E08FE693E014D262E12E
:1002D00072E08FE693E009D461E084E006D761E044
:1002E00084E03CD78091490390914A030197D9F06B
:1002F0006EE172E08FE693E0F8D36AE072E08DE79A
:1003000094E0A2D790934A0380934903019751F355
:1003100061E472E08FE693E0E8D368E873E180E09F
:1003200090E008D6DFCF6CE772E08FE693E0B3D3BE
:100330008E010D5F1F4F7E0187E0E80EF11C6DE717
:1003400074E0CE0101960E94B309F80161918F011A
:100350004AE050E08FE693E08AD46CE172E08FE6E9
:1003600093E099D30E151F0551F78FE693E09BD3C9
:1003700083E493E00E94FA096AE972E088E293E07C
:100380000E94490C64E972E08FE693E0AED32696B2
:100390000FB6F894DEBF0FBECDBFDF91CF911F9196
:1003A0000F91FF90EF900895EF92FF920F931F939C
:1003B000CF93DF93CDB7DEB769970FB6F894DEBF62
:1003C0000FBECDBF63E473E0CE0101960E94FF0A29
:1003D00088E293E00E94740C7C01181619060CF058
:1003E00064C06CE972E08FE693E055D34AE050E0D8
:1003F000B7018FE693E028D4E0912803F091290318
:10040000008CF18DE02D48E150E06BE473E088E270
:1004100093E019956FEA72E08FE693E03CD36BE4CA
:1004200073E0CE01449694D4970140E050E0BE01C1
:100430006C5E7F4FCE010E96B6D4BE01625F7F4FD9
:100440008FE693E042D3CE010E9617D4CE014496A8
:1004500014D440913D0350913E038CEC92E09F8771
:100460008E870091390310913A0320913B0330911C
:100470003C03088B198B2A8B3B8BBE01625F7F4F3D
:1004800088E293E00E94D00BE0912803F0912903C9
:100490000280F381E02DA7016BE473E088E293E032
:1004A000199588E293E00E94D70B69960FB6F894ED
:1004B000DEBF0FBECDBFDF91CF911F910F91FF9097
:1004C000EF9008950F9300E020E040E060E089E6BF
:1004D00093E05FD20F910895FC01818D228D90E011
:1004E000805C9F4F821B91098F7399270895FC01AF
:1004F000918D828D981731F0828DE80FF11D858DD9
:1005000090E008958FEF9FEF0895FC01918D828D0B
:10051000981761F0828DDF01A80FB11D5D968C9157
:10052000928D9F5F9F73928F90E008958FEF9FEF62
:1005300008958CE394E0892B39F080E090E0892BDA
:1005400019F09AD1811125C080E090E0892B41F00B
:1005500080E090E0892B21F00E94000081111CC0F6
:1005600080E090E0892B41F080E090E0892B21F041
:100570000E940000811113C080E090E0892BA1F05F
:1005800080E090E0892B81F00E94000081110AC078
:1005900008950E940000D8CF0E940000E1CF0E9481
:1005A0000000EACF0C9400000895FC01848DDF0167
:1005B000A80FB11DA35ABF4F2C91848D90E00196D6
:1005C0008F739927848FA689B7892C93A089B189C5
:1005D0008C9180648C93938D848D981306C00288CF
:1005E000F389E02D80818F7D80830895CF93DF9301
:1005F000EC01888D8823C1F0EA89FB89808185FD23
:1006000005C0A889B9898C9186FD0EC00FB607FC7C
:10061000F5CF808185FFF2CFA889B9898C9185FFBC
:10062000EDCFCE01C2DFE8CFDF91CF910895CF9219
:10063000DF92FF920F931F93CF93DF931F92CDB75B
:10064000DEB76C01DC015B969C915B975C968C91AC
:100650005C97981307C05096ED91FC91519780815B
:1006600085FD31C0F601038D10E00F5F1F4F0F7342
:100670001127F02EF601848DF81210C00FB607FC7A
:10068000F9CFD6015096ED91FC915197808185FF6D
:10069000F1CFC601698389DF6981ECCF838DE80FD3
:1006A000F11DE35AFF4F6083D6015B960C935B9775
:1006B0005296ED91FC91539780818062808381E016
:1006C00058968C930DC0D6015696ED91FC91579794
:1006D00060835096ED91FC91519780818064808376
:1006E00081E090E00F90DF91CF911F910F91FF90EB
:1006F000DF90CF900895BF92CF92DF92EF92FF925A
:10070000CF93DF93EC016A017B01B22EE889F9896E
:1007100082E08083411581EE580761057105A1F0E3
:1007200060E079E08DE390E0A70196010E948E1DC4
:10073000215031094109510956954795379527951B
:10074000211580E1380798F0E889F989108260E87E
:1007500074E88EE190E0A70196010E948E1D215061
:100760003109410951095695479537952795EC85EB
:10077000FD853083EE85FF852083188EEC89FD8909
:10078000B082EA89FB89808180618083EA89FB8964
:10079000808188608083EA89FB898081806880838A
:1007A000EA89FB8980818F7D8083DF91CF91FF90E3
:1007B000EF90DF90CF90BF9008951F920F920FB6E9
:1007C0000F9211240BB60F922F938F939F93EF9359
:1007D000FF93E0917F03F09180038081E091850396
:1007E000F091860382FD12C09081809188038F5F13
:1007F0008F7320918903821751F0E0918803F0E014
:10080000E159FC4F958F8093880301C08081FF914F
:10081000EF919F918F912F910F900BBE0F900FBE74
:100820000F901F9018951F920F920FB60F921124E0
:100830000BB60F922F933F934F935F936F937F93DA
:100840008F939F93AF93BF93EF93FF938FE693E0C4
:10085000ACDEFF91EF91BF91AF919F918F917F910E
:100860006F915F914F913F912F910F900BBE0F9021
:100870000FBE0F901F9018958FE693E02DDE21E0BC
:10088000892B09F420E0822F0895109272031092B0
:10089000710388EE93E0A0E0B0E08093730390933F
:1008A0007403A0937503B09376038CEB92E090935E
:1008B000700380936F0385EC90E090937C038093AA
:1008C0007B0384EC90E090937E0380937D0380EC27
:1008D00090E09093800380937F0381EC90E090936D
:1008E00082038093810382EC90E090938403809351
:1008F000830386EC90E090938603809385031092A7
:1009000088031092890310928A0310928B03089532
:10091000AF92BF92CF92DF92EF92FF920F931F930D
:10092000CF93DF936C017B01C0E0D0E000E010E0EA
:10093000F601EC0FFD1F4AE050E06281C70197D13C
:100940005C016EE2C701A8D08A0D9B1D080F191F1C
:100950002196C330D10561F74AE050E0F601658188
:10096000C70185D1800F911FDF91CF911F910F910A
:10097000FF90EF90DF90CF90BF90AF9008952CEC58
:1009800032E0FC01318320831282138214821582AB
:1009900008950F93FC018CEC92E091838083628335
:1009A0004383248305830F9108952CEC32E0FC01EE
:1009B00031832083FB014081518162817381FC017D
:1009C00042835383648375830895FB014081518181
:1009D00062817381FC01428353836483758308952C
:1009E0008CEC92E090930D0480930C0410920E0412
:1009F00010920F0410921004109211040895CF92D7
:100A0000DF92EF92FF920F931F93CF93DF936C01CE
:100A10007A01EB01E60EF71E00E010E0CE15DF05CF
:100A200061F06991D601ED91FC910190F081E02D8A
:100A3000C6011995080F191FF1CFC801DF91CF9199
:100A40001F910F91FF90EF90DF90CF900895611567
:100A5000710581F0DB010D900020E9F7AD014150F7
:100A60005109461B570BDC01ED91FC910280F3818B
:100A7000E02D199480E090E00895DC01ED91FC9167
:100A8000DB0114964D915C9115976D917C910280DC
:100A9000F381E02D1994DBCFDC01ED91FC91019005
:100AA000F081E02D19940F931F93CF93DF93EC0106
:100AB0006DE0F2DF8C016AE0CE01EEDF800F911F66
:100AC000DF91CF911F910F9108950F931F93CF93B3
:100AD000DF93EC01D2DF8C01CE01E5DF800F911FA7
:100AE000DF91CF911F910F9108950F931F93CF9393
:100AF000DF93EC01ACDF8C01CE01D5DF800F911FBD
:100B0000DF91CF911F910F9108958F929F92AF9295
:100B1000BF92CF92DF92EF92FF920F931F93CF93EA
:100B2000DF93CDB7DEB7A1970FB6F894DEBF0FBE47
:100B3000CDBF7C01C42EE52FCB01D22E19A221E01E
:100B40002D1510F02AE0D22E8E010F5D1F4F8D2C37
:100B5000912CA12CB12C6C2D7E2FA50194010E940B
:100B60008E1D8C2DD29E80191124015011098A30BE
:100B700014F4805D01C0895CF80180832115310582
:100B80004105510521F0C22EE32FCA01E4CFB8017F
:100B9000C7015DDFA1960FB6F894DEBF0FBECDBFD3
:100BA000DF91CF911F910F91FF90EF90DF90CF9049
:100BB000BF90AF909F908F900895CF92DF92EF9269
:100BC000FF920F931F93CF93DF93EC016A017B0198
:100BD0002115310579F4E881F9810190F081E02D4A
:100BE000642FDF91CF911F910F91FF90EF90DF90D5
:100BF000CF9019942A303105D9F477FF18C06DE2EF
:100C00004BDF8C0144275527BA014C195D096E0949
:100C10007F092AE0CE0179DF800F911FDF91CF910C
:100C20001F910F91FF90EF90DF90CF9008952AE0F1
:100C3000B701A601CE01DF91CF911F910F91FF90D7
:100C4000EF90DF90CF9061CF9A01AB01662757FDFF
:100C50006095762FB2CF2115310541F4DC01ED917D
:100C6000FC910190F081E02D642F19944ECF9A01F0
:100C7000462F50E060E070E0EECFFC018081918172
:100C80000C948E1ECF93DF93EC018881998100979D
:100C900011F00E948E1E198218821D821C821B82F6
:100CA0001A82DF91CF9108950F931F93CF93DF9313
:100CB000EC018B016F5F7F4F888199810E94731FC8
:100CC000009731F0998388831B830A8381E001C0F8
:100CD00080E0DF91CF911F910F910895CF93DF9323
:100CE000EC0188819981892B29F08A819B81861763
:100CF000970758F4CE01D8DF882341F08C819D817D
:100D0000892B19F4E881F981108281E0DF91CF917C
:100D10000895EF92FF920F931F93CF93DF93EC010F
:100D20007B018A01BA01DADF811103C0CE01AADF9B
:100D300007C01D830C83B701888199810E946D20B3
:100D4000CE01DF91CF911F910F91FF90EF90089509
:100D5000FC011182108213821282158214826115A5
:100D6000710551F0FB0101900020E9F7AF014150FE
:100D70005109461B570BCDCF0895CF93DF93EC015C
:100D80006115710559F0FB0101900020E9F7AF01F1
:100D900041505109461B570BBCDF01C073DFCE0128
:100DA000DF91CF910895BF92CF92DF92EF92FF92A1
:100DB0000F931F93CF93DF936C017B01EA018901AD
:100DC0002417350720F48D2FE901042F182F6BE924
:100DD00072E0C601BDDFD70114968D919C911597E5
:100DE000C817D907C0F48017910708F48C01D70100
:100DF000ED91FC911197E00FF11FB08010826D9181
:100E00007C916C0F7D1FC601B8DFD701ED91FC917D
:100E1000E00FF11FB082C601DF91CF911F910F91BA
:100E2000FF90EF90DF90CF90BF9008950895A7D0E6
:100E3000FDDF3BDAC9E9D2E0B7DA2097E9F379DBE5
:100E4000FBCF1F920F920FB60F9211242F933F9357
:100E50008F939F93AF93BF93809113049091140449
:100E6000A0911504B09116043091120423E0230FD1
:100E70002D3720F40196A11DB11D05C026E8230FD2
:100E80000296A11DB11D2093120480931304909328
:100E90001404A0931504B093160480911704909144
:100EA0001804A0911904B0911A040196A11DB11D56
:100EB0008093170490931804A0931904B0931A0414
:100EC000BF91AF919F918F913F912F910F900FBE46
:100ED0000F901F9018952FB7F8946091130470919C
:100EE000140480911504909116042FBF08953FB704
:100EF000F8948091170490911804A0911904B0916E
:100F00001A0426B5A89B05C02F3F19F00196A11D14
:100F1000B11D3FBF6627782F892F9A2F620F711D51
:100F2000811D911D42E0660F771F881F991F4A950A
:100F3000D1F70895CF92DF92EF92FF92CF93DF9394
:100F40006B017C01D4DFEB01C114D104E104F10495
:100F500079F039D1CCDF6C1B7D0B683E7340A0F378
:100F600081E0C81AD108E108F108C851DC4FECCF84
:100F7000DF91CF91FF90EF90DF90CF90089578941C
:100F800084B5826084BD84B5816084BD85B582608E
:100F900085BD85B5816085BDEEE6F0E0808181602C
:100FA0008083E1E8F0E0108280818260808380812C
:100FB00081608083E0E8F0E0808181608083E1EB04
:100FC000F0E0808184608083E0EBF0E080818160EC
:100FD0008083E1E9F0E080818260808380818160AC
:100FE0008083E0E9F0E0808181608083E1EAF0E0E5
:100FF000808182608083808181608083E0EAF0E08C
:10100000808181608083E1E2F1E080818260808381
:10101000808181608083E0E2F1E080818160808373
:10102000EAE7F0E080818460808380818260808351
:101030008081816080838081806880831092C1007C
:10104000089590E0FC013197E231F10508F04CC0C1
:10105000EE58FF4F0C94CC1D809180008F7703C019
:10106000809180008F7D8093800008958091800022
:10107000877FF9CF84B58F7702C084B58F7D84BD1B
:1010800008958091B0008F7703C08091B0008F7D6C
:101090008093B0000895809190008F7707C0809171
:1010A00090008F7D03C080919000877F8093900097
:1010B00008958091A0008F7707C08091A0008F7D58
:1010C00003C08091A000877F8093A0000895809145
:1010D00020018F7707C0809120018F7D03C0809110
:1010E0002001877F809320010895CF93DF9390E0C4
:1010F000FC01E25BFE4F2491FC01EC56FE4F849113
:10110000882349F190E0880F991FFC01EC50FE4FB5
:10111000A591B49186529E4FFC01C591D4919FB781
:10112000611108C0F8948C91209582238C9388815A
:1011300082230AC0623051F4F8948C91322F30959A
:1011400083238C938881822B888304C0F8948C91AC
:10115000822B8C939FBFDF91CF9108950F931F93A4
:10116000CF93DF931F92CDB7DEB7282F30E0F90180
:10117000E85FFE4F8491F901E25BFE4F1491F901A3
:10118000EC56FE4F04910023C1F0882319F06983C7
:1011900058DF6981E02FF0E0EE0FFF1FE652FE4FAF
:1011A000A591B4919FB7F8948C91611103C01095EB
:1011B000812301C0812B8C939FBF0F90DF91CF9132
:1011C0001F910F91089508952091CD04222399F045
:1011D0003FB7F8942091CD04213059F42DB32093DA
:1011E000CB044DB32091CC04209524232DBB3FBFCD
:1011F00002C03093CB048CBD9DBD08958091CD0479
:10120000882361F09FB7F8942091CD048091CB049E
:10121000213019F48DBB9FBF08958FBF089544E01E
:1012200050E0BC0181E090E00C94711144E050E08A
:10123000BC0185E090E00C94711144E050E0BC01E9
:101240008FE090E00C947111AF92BF92CF92DF9239
:10125000EF92FF920F931F93CF93DF9300D000D0B4
:10126000CDB7DEB76C015B0180918504811106C0AA
:1012700082E694E086D381E0809385048BE194E05C
:10128000F6019783868389EA94E0C6D780E590E0EB
:101290009BDF46E050E0B50189E090E00E947111CB
:1012A00000E020E040E060E0CE01019672DBCE017C
:1012B0000396C3DFA3DF10EAE12E1FE0F12E00E06A
:1012C00010E020E63AEE40E050E0B501F6018681FC
:1012D00097810E9409185C018130910591F580E5A4
:1012E00090E072DFF60166817781CE0101960E945F
:1012F0005813CE010396A1DFF60166817781CE01F6
:1013000001960E946E13CE01039689DFF601668175
:101310007781CE0101960E946313CE01039686DF8A
:101320006DDFF60166817781CE0101960E94791307
:101330004B815C816D817E81F6014283538364839E
:101340007583C50126960FB6F894DEBF0FBECDBFDC
:10135000DF91CF911F910F91FF90EF90DF90CF9091
:10136000BF90AF900895CF93DF93EC0108DB80E549
:1013700090E02ADFBE016E5F7F4F44E050E08FE0D7
:1013800090E00E9487123ADFCE01DF91CF9108955D
:101390002CEC32E0FC0131832083FB01428153813C
:1013A00064817581FC01428353836483758308954E
:1013B0000F9300E020E040E060E085E994E0E9DAA6
:1013C0008DE794E00F91DBCACF93DF931F92CDB7E7
:1013D000DEB76983DC01ED91FC910280F381E02DA1
:1013E00041E050E0BE016F5F7F4F19950F90DF9194
:1013F000CF910895EF92FF920F931F93CF93DF93B6
:10140000CDB7DEB72D970FB6F894DEBF0FBECDBFB8
:101410007C0100E010E0602FCE0101960E943D1C8F
:10142000CE0101960E944F1C811114C0F701448126
:10143000558120E061E0802FDCD3802F28D4F70194
:1014400084819581F801EE0FFF1FE357FB4F9183D5
:10145000808305C00F5F1F4F04301105E1F62D9604
:101460000FB6F894DEBF0FBECDBFDF91CF911F91B5
:101470000F91FF90EF900895FC011382128282ED8C
:1014800092E091838083758364830895BF92CF92A5
:10149000DF92EF92FF920F931F93CF93DF93CDB71D
:1014A000DEB72D970FB6F894DEBF0FBECDBF8C010F
:1014B0004DE8C42E44E0D42EB12CE12CF12C6B2D40
:1014C000CE0101960E943D1CD6012D913D916D01EA
:1014D000F8018481958128173907B1F4CE0101966E
:1014E0000E944F1C843169F0CE0101960E944F1C6E
:1014F0008C3151F4CE0101960E94931B892B99F0F7
:1015000003C0EE24E394F12CB394F4E0BF12D7CFE0
:10151000EF2871F4D801ED91FC910480F581E02D64
:10152000C801199505C0CE0101960E94B41CECCFEC
:101530002D960FB6F894DEBF0FBECDBFDF91CF91D1
:101540001F910F91FF90EF90DF90CF90BF90089583
:101550007F928F929F92AF92BF92CF92DF92EF9243
:10156000FF920F931F93CF93DF93CDB7DEB72D97E5
:101570000FB6F894DEBF0FBECDBF6C015B014A0110
:1015800085DF5DE8E52E54E0F52E712C00E010E0DB
:10159000672DCE0101960E943D1CF70121913191EA
:1015A0007F01F601848195812817390731F4CE0136
:1015B00001960E944F1C8731C9F07394F4E07F12AA
:1015C000E7CFC8012D960FB6F894DEBF0FBECDBF92
:1015D000DF91CF911F910F91FF90EF90DF90CF900F
:1015E000BF90AF909F908F907F900895A401B50118
:1015F000CE0101960E94791B080F191FDECFBF9202
:10160000CF92DF92EF92FF920F931F93CF93DF93CE
:10161000CDB7DEB72D970FB6F894DEBF0FBECDBFA6
:101620008C016B01CB0132DF6DE8E62E64E0F62E13
:10163000B12C6B2DCE0101960E943D1CF70121912A
:1016400031917F01F601848195812817390751F581
:10165000CE0101960E944F1C873111F08C3111F59B
:10166000CE0101960E94931B892BE1F08B819C8116
:10167000F801938382838D819E81AF81B8858483B5
:101680009583A683B78349855A856B857C8540877A
:1016900051876287738787E093E0918380838D858C
:1016A000848708C0B394F4E0BF12C3CF64E0C801DC
:1016B0000E943D1CC8012D960FB6F894DEBF0FBEE8
:1016C000CDBFDF91CF911F910F91FF90EF90DF90F1
:1016D000CF90BF9008950F9300E020E040E060E0DD
:1016E0008BE994E056D90F910895DC01ED91FC91BE
:1016F000008CF18DE02D19942CEC32E0FC0131834B
:101700002083FB014189528963897489FC014283EA
:101710005383648375830895FC01858996890895B0
:10172000FC01818D928D0895CF93DF931F92CDB7E9
:10173000DEB76983DC01ED91FC910280F381E02D3D
:1017400041E050E0BE016F5F7F4F19950F90DF9130
:10175000CF910895CF93DF93EC01898D9A8D892BDA
:1017600041F0E881F9810680F781E02DCE011995DD
:10177000F4CFDF91CF910895CF93DF93EC018C8567
:10178000843059F010D2EC85F0E0EE0FFF1FE357E4
:10179000FB4F1182108284E08C87DF91CF910895F6
:1017A000FC01108E178A6E5F7F4F848585C4FC0113
:1017B0008485C4C4CF93DF93EC019A018F89988DFF
:1017C000AB01BC018C8536D42F89388D280F391F89
:1017D000388F2F8BDF91CF9108950F931F93CF9365
:1017E000DF931F92CDB7DEB78C01FC01818D928D06
:1017F000892B51F041E050E0BE016F5F7F4F84853F
:101800006BD3181619061CF08FEF9FEF08C0F80174
:10181000818D928D0197928F818F898190E00F90B9
:10182000DF91CF911F910F910895CF93DF93EC013A
:10183000898D9A8D009719F48FEF9FEF0FC048178D
:10184000590708F0AC018C8547D318161906A4F780
:10185000298D3A8D281B390B3A8F298FDF91CF9133
:101860000895CF93DF931F92CDB7DEB7FC01218D92
:10187000328D232B41F0BE016F5F7F4F8485ADD346
:10188000898190E002C08FEF9FEF0F90DF91CF91A1
:101890000895FF920F931F93CF93DF93EC018B0179
:1018A0008C858430D1F4F12C8F2D5AD1811102C056
:1018B000FC8606C08831E1F3F39484E0F812F4CF9B
:1018C0008C85843051F01E870D871A8E198E20E08A
:1018D000A80162E08ED181E001C080E0DF91CF916C
:1018E0001F910F91FF9008950F931F93CF93DF9354
:1018F000CDB7DEB728970FB6F894DEBF0FBECDBFC9
:101900008C01DC01ED91FC910284F385E02D1995A9
:10191000F80184853BD31816190634F548E050E0E9
:10192000BE016F5F7F4FD8011C968C91D5D21816DF
:101930001906E4F4BE016F5F7F4FC8010F9645D8CA
:101940008D8190E0982F88272E81820F911DF801BC
:10195000968B858B8F8190E0982F88272885820F22
:10196000911D928F818F02C080E090E028960FB683
:10197000F894DEBF0FBECDBFDF91CF911F910F91C5
:101980000895FC011382128248EE53E060E070E09B
:1019900044835583668377838CED92E091838083C3
:1019A00084E08487CF010F960C94BF04CF92DF921E
:1019B000EF92FF920F931F93CF93DF93CDB7DEB7D4
:1019C000AF970FB6F894DEBF0FBECDBF7C018B0181
:1019D0006A01CE0101960E94BF04CE010996D1DFB3
:1019E000CE018A960E94BF046DE774E0CE01849612
:1019F000CFDCBE016C5D7F4FCE0101960E944C187A
:101A0000AE01465D5F4FB801CE0101960E94B01A4B
:101A100081309105C1F4D701ED91FC910088F189E5
:101A2000E02D8CEC92E09DA38CA30CA51DA52EA50A
:101A30003FA50EA31FA328A739A7A601BE016C5D71
:101A40007F4FC7011995AF960FB6F894DEBF0FBE52
:101A5000CDBFDF91CF911F910F91FF90EF90DF905D
:101A6000CF9008950F9300E020E040E060E081EA2D
:101A700094E00E94C9040F910895CF92DF92EF92F3
:101A8000FF920F9330E0C12CF2E1DF2EFAE7EF2E48
:101A9000F12C4C155D056E057F0540F4F694E79436
:101AA000D794C7943F5F3630A1F737E041E0432732
:101AB000211102C050E701C050E5242F30E03595D8
:101AC000279523700C70202B252BFC01208341705F
:101AD00041830F91FF90EF90DF90CF90089590E0B9
:101AE000982F882744E050E0845F9B4FFAC3282F4B
:101AF00030E02C5F3F4F922F8827860F971F1AC424
:101B000062E070E0F4CFFB01282F30E02C5F3F4F04
:101B1000922F8827642F8E0F9F1F61C3CF93DF936F
:101B2000C82FD62F472F64E070E0EDDF4D2F65E022
:101B300070E08C2FDF91CF91E6CF462F62E070E00E
:101B4000E2CFCF93DF93C82FD62F472F60E170E00D
:101B5000DADF4D2F61E170E08C2FDF91CF91D3CF91
:101B60000F931F93CF93DF9300D0CDB7DEB7182F1D
:101B700000E021E040E059E06DE370E0CE01019625
:101B80007CDF89819A8120DB63E070E0812FAFDF09
:101B90008B8334DB8B810F900F900F90DF91CF916F
:101BA0001F910F9108950F931F93CF93DF931F926F
:101BB0001F92CDB7DEB7182F00E021E040E059E0DA
:101BC0006DE370E0CE01019658DF89819A81FCDADD
:101BD00040E150E0612F89EA94E055D56FEF812F05
:101BE000ACDF0CDB0F900F90DF91CF911F910F9125
:101BF0000895CF92DF92EF92FF920F931F93CF93AE
:101C0000DF931F921F92CDB7DEB7182FD62E7A0121
:101C1000C22E8FEF860F853070F5812FC4DF00E074
:101C200021E040E059E06DE370E0CE01019625DF50
:101C300089819A81C9DA4D2D4C2960E070E0812FAD
:101C400062DFE114F10411F0B7010AC06091A7044A
:101C50007091A8046F5F7F4F7093A8046093A704EE
:101C6000812F5CDF41E050E0612F89EA94E00BD5E1
:101C7000C5DA81E001C080E00F900F90DF91CF9135
:101C80001F910F91FF90EF90DF90CF9008950F93E9
:101C90001F93CF93DF931F921F92CDB7DEB7182FFC
:101CA00000E021E040E059E06DE370E0CE010196F4
:101CB000E4DE89819A8188DA63E070E0812F17DFA2
:101CC000833119F09BDA80E008C042E050E0612FD8
:101CD00089EA94E0D8D492DA81E00F900F90DF91F6
:101CE000CF911F910F910895CF92DF92EF92FF92C3
:101CF0000F931F93CF93DF931F921F92CDB7DEB741
:101D0000182F7B016A01FB0180818F3F51F4818193
:101D10008F3F99F482818F3F81F483818F3F69F4F3
:101D20002AC081110AC0FB018181811106C0828114
:101D3000811103C083818823F1F0C114D104D9F04B
:101D400000E021E040E059E06DE370E0CE01019653
:101D500094DE89819A8138DAB701812FC0DEB6011D
:101D6000812FEFDE44E050E0612F89EA94E08BD4CC
:101D700045DA81E001C080E00F900F90DF91CF91B4
:101D80001F910F91FF90EF90DF90CF9008950F93E8
:101D90001F93CF93DF931F921F92CDB7DEB7182FFB
:101DA00000E021E040E059E06DE370E0CE010196F3
:101DB00064DE89819A8108DA48E050E0612F89EA7F
:101DC00094E061D41BDA0F900F90DF91CF911F91B7
:101DD0000F910895BF92CF92DF92EF92FF920F93EF
:101DE0001F93CF93DF9300D0CDB7DEB7B82E6B0132
:101DF0007A01413088E0580718F0E12C98E0F92E7C
:101E000000E021E040E059E06DE370E0CE01019692
:101E100034DE89819A81D8D96B2D89EA94E0BAD2CF
:101E20008C0163E070E08B2D62DE8B83E7D98B81C0
:101E3000873111F08C3129F4C6D90E151F0500F336
:101E400002C0E12CF12C00E021E040E059E06DE31C
:101E500070E0CE01019611DE89819A81B5D9970192
:101E6000A6016B2D89EA94E048D340E250E06B2D47
:101E700089EA94E008D48B2D43DE84FD1BC063E027
:101E800070E08B2D34DE811106C0B8D98B2D8BDE2E
:101E900080E090E014C0B2D996D900E021E040E0A3
:101EA00059E06DE370E0CE010196E7DD89819A810A
:101EB0008BD9E1CF60E18B2D40DEA0D9C7010F9017
:101EC0000F900F90DF91CF911F910F91FF90EF90A6
:101ED000DF90CF90BF900895AF92BF92CF92DF92E4
:101EE000EF92FF920F931F93CF93DF931F921F9256
:101EF000CDB7DEB7182F5B016A0100E021E040E0BA
:101F000059E06DE370E0CE010196B7DD89819A81D9
:101F10005BD9612F89EA94E06DD27C01009799F436
:101F200063E070E0812FE3DD843109F18823F9F06B
:101F300021E030E08C3111F420E030E0EE24FF2489
:101F4000E21AF30A14C0C816D9060CF476011E145E
:101F50001F046CF400E09701A501612F89EA94E069
:101F600047D340E450E0612F89EA94E08CD346D90E
:101F7000C7010F900F90DF91CF911F910F91FF90AC
:101F8000EF90DF90CF90BF90AF9008950F931F9385
:101F9000CF93DF9300D01F92CDB7DEB7182F00E0AC
:101FA00021E040E059E06DE370E0CE01019665DD8F
:101FB00089819A8109D9612F89EA94E01BD28B83A8
:101FC0009C831CD98B819C810F900F900F900F9058
:101FD000DF91CF911F910F910895EF92FF920F9390
:101FE0001F93CF93DF931F921F92CDB7DEB7182FA9
:101FF0007B0100E021E040E059E06DE370E0CE01BC
:1020000001963BDD89819A81DFD801E021E030E053
:10201000A701612F89EA94E0EBD2F0D881E090E04B
:102020000F900F90DF91CF911F910F91FF90EF9044
:10203000089508959F92AF92BF92CF92DF92EF9250
:10204000FF920F931F93CF93DF931F921F92CDB7F1
:10205000DEB7982E6B015A01790100E021E040E0E3
:1020600059E06DE370E0CE01019607DD89819A8128
:10207000ABD8692D89EA94E08DD18E159F0528F49F
:10208000692D89EA94E086D17C0187019501A6013A
:10209000692D89EA94E0C8D1B1D8C7010F900F909B
:1020A000DF91CF911F910F91FF90EF90DF90CF9034
:1020B000BF90AF909F900895CF92DF92EF92FF92E2
:1020C0000F931F93CF93DF931F921F92CDB7DEB76D
:1020D000182F7B016A01FB018081811109C0818178
:1020E000811106C08281811103C083818823C9F0D8
:1020F000C114D104B1F000E021E040E059E06DE30B
:1021000070E0CE010196B9DC89819A815DD8B70172
:10211000812FE5DCB601812F14DD70D881E090E0DD
:1021200002C080E090E00F900F90DF91CF911F915F
:102130000F91FF90EF90DF90CF9008950F931F9332
:10214000CF93DF931F921F92CDB7DEB7182F00E019
:1021500021E040E059E06DE370E0CE0101968DDCB6
:1021600089819A8131D840E250E0612F89EA94E078
:102170008AD2812FC5DC84FD1AC0812FC1DC83FF88
:1021800007C068E1812FD9DC39D880E090E015C024
:1021900035D819D800E021E040E059E06DE370E067
:1021A000CE0101966ADC89819A810ED8E2CF60E186
:1021B000812FC3DC23D881E090E00F900F90DF9156
:1021C000CF911F910F9108958EBD00000DB407FEB1
:1021D000FDCF8EB508952C9808952C9A08951F93DD
:1021E000CF93DF931F921F92CDB7DEB7182F6A836C
:1021F0009983F1DF80EFE8DF9981892FE5DF812F77
:10220000E3DF6A81862FE0DFE8DF81E00F900F9047
:10221000DF91CF911F910895CF93DF93EC016CE292
:1022200071E080E090E00E949A070E94581D249A75
:102230008091CD04882399F09FB7F8948091CD04C4
:10224000813059F48DB38093CB042DB38091CC04AD
:10225000809582238DBB9FBF02C09093CB0480E505
:102260008CBD1DBC60E880E090E0B9DF65E58BE1E6
:1022700090E0B5DF65E58AE190E0B1DF8091CD04C3
:10228000882361F09FB7F8942091CD048091CB040E
:10229000213019F48DBB9FBF01C08FBF80E090E457
:1022A0009983888380E090E69987888780E098E426
:1022B0009B838A8380E098E69B878A8780E090E50D
:1022C0009D838C8380E090E79D878C8780E098E5F4
:1022D0009F838E8380E098E79F878E87DF91CF91E1
:1022E0000895CF92DF92EF92FF920F931F93CF93B7
:1022F000DF93EC017A018B016C01C40ED51ECC1565
:10230000DD0571F068DF80EF5FDF8D2F5DDF8C2FE3
:102310005BDF2196F80181918F0156DF5EDFEFCF01
:10232000C701DF91CF911F910F91FF90EF90DF9048
:10233000CF9008951F93CF93DF931F92CDB7DEB751
:10234000182F998348DF8FE03FDF9981892F3CDF89
:10235000812F3ADF80E038DF89833FDF89810F906A
:10236000DF91CF911F9108951F93CF93DF93182F83
:1023700060E270E0BCDBC82FD0E061E270E0812F4A
:10238000B6DBDC2FCC279E01282BC901DF91CF9132
:102390001F910895FF920F931F93CF93DF93F62E13
:1023A000C0E0D0E08F2DE0DF8C01009719F08F2D79
:1023B000DBDFEC01C017D107A9F7CE01DF91CF9188
:1023C0001F910F91FF9008951F93CF93DF93182FC4
:1023D00066E270E08CDBC82FD0E067E270E0812F0E
:1023E00086DBDC2FCC279E01282BC901DF91CF9102
:1023F0001F910895FF920F931F93CF93DF93F62EB3
:10240000C0E0D0E08F2DE0DF8C01009719F08F2D18
:10241000DBDFEC01C017D107A9F7CE01DF91CF9127
:102420001F910F91FF9008956F927F929F92AF92AC
:10243000BF92CF92DF92EF92FF920F931F93CF93B1
:10244000DF931F92CDB7DEB7D82E962E3A015901F1
:1024500064E270E0892D99834ADBE82EF12C65E275
:1024600070E0892D44DBFE2CEE24E82AE60CF71CF4
:10247000970137706D2C9981792E690C711C690C4C
:10248000711CD301ED91FC91E20FF31FC901800F84
:10249000911F8130984098F0C12C48E0D42EC21A88
:1024A000D30AA601B501CF011CDFA8014C195D09B3
:1024B000B5016C0D7D1DF3018081918103C0A801E0
:1024C000B501CF010EDFE00EF11E4F2D64E270E08A
:1024D000892D19DB4E2D65E270E0892D0F90DF917B
:1024E000CF911F910F91FF90EF90DF90CF90BF9011
:1024F000AF909F907F906F9006CB0F931F938901B1
:102500009A0140E050E090DF1F910F910895CF9223
:10251000DF92EF92FF920F931F93CF93DF93EC0123
:102520007A018B016C01C40ED51ECC15DD0579F046
:1025300052DE8FE049DE8D2F47DE8C2F45DE21965F
:1025400080E042DEF80181938F0147DEEECFC701C4
:10255000DF91CF911F910F91FF90EF90DF90CF907F
:102560000895AF92BF92CF92DF92EF92FF920F93B6
:102570001F93CF93DF931F921F92CDB7DEB75A837D
:1025800049835901E981FA81F7707C01E60EF11C5B
:10259000E60EF11CD70118968D919C9119978E0F1C
:1025A0009F1F98012E0F3F1F2130384090F0C12C03
:1025B00068E0D62ECE1ADF0AA601B501A8DFA80171
:1025C0004C195D09B5016C0D7D1DF7018085918564
:1025D00002C0A801B5010F900F90DF91CF911F911C
:1025E0000F91FF90EF90DF90CF90BF90AF908FCF83
:1025F0008F929F92AF92BF92CF92DF92EF92FF9213
:102600000F931F93CF93DF936C01962E5A0179019C
:10261000802E68E270E0892D6ADAC82FD0E069E286
:1026200070E0892D64DADC2FCC27C82B8701950157
:10263000AE01692DC60195DF811018C0CE0DDF1DDA
:102640004D2F68E270E0892D5EDA4C2F69E270E070
:10265000892DDF91CF911F910F91FF90EF90DF9027
:10266000CF90BF90AF909F908F904DCADF91CF9148
:102670001F910F91FF90EF90DF90CF90BF90AF90A0
:102680009F908F900895CF93C62F61E070E08C2FBC
:102690003ADA61E070E08C2F2ADA8111FACFCF911B
:1026A00008950E9624E1FC0111922A95E9F7089508
:1026B000CF93DF93EC01625F7F4F0E94D504CE0180
:1026C000DF91CF910895CF93DF93EC016E5E7F4F42
:1026D0000E94D504CE01DF91CF910895CF93DF936F
:1026E000EC016A5E7F4F0E94D504CE01DF91CF914D
:1026F0000895CF93DF93EC01625E7F4F0E94D50473
:10270000CE01DF91CF91089580E3FB018083329663
:10271000842F82958F7090E1899F401911244A304F
:1027200014F4405D01C0495C4293882311F0482FA6
:10273000EFCF08950F9300E020E040E060E089EBE8
:1027400094E00E94C9040F9108956F927F928F9236
:102750009F92AF92BF92CF92DF92EF92FF920F9330
:102760001F93CF93DF93CDB7DEB7AC970FB6F89436
:10277000DEBF0FBECDBF7C01862EB42EA52E20E27B
:10278000922ECE0101966C01FC01292D11922A9501
:10279000E9F70FEF2FEF4FEF6FEF86960E94C90416
:1027A0008CEC92E09AA389A389A59AA5ABA5BCA5B8
:1027B0008BA39CA3ADA3BEA38701095B1F4F43E47A
:1027C00050E0BE016F5D7F4FC8010E94D00B0196A3
:1027D00009F4BEC081E089838A8386E0782E7B82FB
:1027E0001C82F70164817581868197810E94D21DC8
:1027F0006D837E838F839887A986BA8680E890E070
:102800009C878B874CE150E0B601C8010E94DA0B2F
:10281000F601292D11922A95E9F7570188E0A80EB3
:10282000B11CF501D60101900D927A94E1F740E1D7
:1028300050E0B601C8010E94DA0BF60111929A9499
:10284000E9F796E0692E712C40E250E0B601C8012C
:102850000E94DA0BF1E06F1A710861147104A1F79C
:1028600083E6898392E89A8393E59B838C8385E34F
:102870008D8381E08E838F829DE3988797E099878F
:102880008A8786E0F501DE011B9601900D928A95FC
:10289000E1F78CE0898B8A8B6CEF72E0CE01439676
:1028A0000E946D20F7014385BE01675E7F4FC7011F
:1028B0002BDFF7014485BE01655E7F4FC70124DF32
:1028C000F7014585BE01635E7F4FC7011DDF4EE105
:1028D00050E0B601C8010E94DA0BF3E08F121EC06F
:1028E00082E3898384E08A83F70196859B839785B9
:1028F0009C8390899D8391899E8396E39F8388879B
:10290000828D8987838D8A87848D8B87858D8C873F
:102910004CE050E0B601C8010E94DA0B87E38983DE
:1029200086E08A8391E09B8393E09C838D838FE094
:102930008E838AE38F838BE388878FEF898749E0D3
:1029400050E0B601C8010E94DA0BC8010E94D70B03
:10295000AC960FB6F894DEBF0FBECDBFDF91CF911E
:102960001F910F91FF90EF90DF90CF90BF90AF90AD
:102970009F908F907F906F9008952F923F924F92EB
:102980005F926F927F928F929F92AF92BF92CF92FF
:10299000DF92EF92FF920F931F93CF93DF93CDB708
:1029A000DEB7E3970FB6F894DEBF0FBECDBF7C0154
:1029B0002A013B0169010E946B074B015C01870101
:1029C000095B1F4FC8010E94740C1816190694F079
:1029D0000E946B07681979098A099B0946165706F0
:1029E00068067906F0F062E370E080E090E00E9413
:1029F0009A07E8CF42E250E0BE016F5F7F4FC80107
:102A00000E94150C8981823031F4F80185899689FC
:102A10008334910541F019A6C8010E94AA0B89A52B
:102A200065C18FEF63C16D817E818F8198850E9422
:102A3000D21D4B015C01F601608371838283938315
:102A400046E050E0B701685F7F4FCE014D960E948F
:102A50005720892B99F4F70180819181A281B3815C
:102A600088169906AA06BB0648F084819581A6813E
:102A7000B78188159905AA05BB0528F4C8010E94ED
:102A8000AA0B80E033C189899A89AB89BC89F70197
:102A900086879787A08BB18B3EECC32ED12CC801C3
:102AA0000E94ED0BF1E0CF1AD108C114D104B9F79F
:102AB00019A6C70182969BA78AA7F701B696FDA71C
:102AC000ECA708969FA78EA73C976F018E9699ABAF
:102AD00088AB3897FBABEAAB5701F6E1AF0EB11C00
:102AE00047018EE1880E911CC8010E94900B1816B8
:102AF00019060CF091CFC8010E94ED0B83339105AC
:102B000009F4CBC0F4F481309105B9F11CF4892BA0
:102B100059F3DCC083309105C1F1069709F0D6C0A6
:102B2000C8010E94ED0B3C0144E050E0B401C80133
:102B30000E94150C212C312C7724F4E06F1A7108B7
:102B40003FC08A33910509F47EC03CF4853391057A
:102B500061F0C69709F43FC0B9C08B33910509F401
:102B600087C08F3F910501F2B1C0C8010E94ED0BF3
:102B7000C8010E94ED0B89A7B7CFC8010E94ED0BD9
:102B800044E050E06AA97BA93AC0C8010E94ED0B5D
:102B90003C0144E050E0B501C8010E94150C212C15
:102BA000312C772494E0691A7108261437040CF04C
:102BB0009BCFC8010E94ED0BEFEF2E1A3E0AF5CF16
:102BC000261437040CF090CFC8010E94ED0B8FEF54
:102BD000281A380AF5CFC8010E94ED0B782EF701AC
:102BE000828D811110C0838D81110DC0848D811162
:102BF0000AC0858D811107C044E050E0B601C801CC
:102C00000E94150C71CFE8A9F9A92080318042807B
:102C10005380B601CE0183960E94D5048DA19EA15A
:102C2000AFA1B8A582159305A405B50529F3212CFC
:102C3000312C721409F458CFC8010E94ED0BFFEF3C
:102C40002F1A3F0AF6CFC8010E94ED0B44E050E076
:102C50006CA57DA5C8010E94150CF70166A177A19E
:102C600080A591A59FD766A377A380A791A73CCF06
:102C7000C8010E94ED0B44E050E06EA57FA5C8019D
:102C80000E94150CF70162A573A584A595A58AD7A6
:102C900062A773A784A795A727CFC8010E94ED0B51
:102CA00044E050E06AA57BA5C8010E94150CF7011D
:102CB00062A173A184A195A175D762A373A384A314
:102CC00095A366A777A780AB91AB0ECFC8010E94F2
:102CD000ED0B382E612C712C361409F405CFC80188
:102CE0000E94ED0BFFEF6F1A7F0AF6CFE3960FB647
:102CF000F894DEBF0FBECDBFDF91CF911F910F9132
:102D0000FF90EF90DF90CF90BF90AF909F908F900B
:102D10007F906F905F904F903F902F9008952F92EB
:102D20003F924F925F926F927F928F929F92AF925B
:102D3000BF92CF92DF92EF92FF920F931F93CF93A8
:102D4000DF93CDB7DEB727970FB6F894DEBF0FBE7F
:102D5000CDBF8C0120ED37E040E050E061E070E055
:102D600080E090E08AD6D80114966D937D938D9380
:102D70009C931797F8016083718382839383480142
:102D8000F7E48F0E911CC4010E94BC0B64E470E058
:102D9000C4010E94490C882309F420C10E946B07DA
:102DA0006B017C01A12CB12C1D82180186E4280E38
:102DB000311CD801DE96BF83AE8338EE432E33E05C
:102DC000532E612C712CF1018081833009F4F5C000
:102DD00081111DC0F80184819581A681B78101967A
:102DE000A11DB11D84839583A683B7830E946B07C1
:102DF0006C197D098E099F09A30192018FD6A90143
:102E000061E0C801A2DC81E0D1018C93B8C08430BC
:102E1000E9F4F80184819581A681B7810196A11D0D
:102E2000B11D84839583A683B7830E946B076C19B9
:102E30007D098E099F09A301920170D6A90163E063
:102E4000C80183DCE2E0D101EC9399C0813049F5FF
:102E5000AE81BF814D915D916D917C919E012F5FFF
:102E60003F4FC8018ADD8D83823009F088C0898197
:102E70009A81AB81BC81F80184839583A683B78353
:102E80000E946B076C197D098E099F09A3019201AD
:102E900045D6A90163E0C80158DCED81D101EC936E
:102EA00074C0823009F06BC0AE81BF814D915D91DD
:102EB0006D917C919E012F5F3F4FC8015EDD8D8338
:102EC000853009F056C083E0F1018083F80182A1CA
:102ED00093A1A4A1B5A1892B8A2B8B2B41F484E863
:102EE00093E0A0E0B0E082A393A3A4A3B5A3F8016C
:102EF00086A197A1A0A5B1A5892B8A2B8B2B61F464
:102F000082A193A1A4A1B5A1B695A7959795879500
:102F100086A397A3A0A7B1A7D8019A964D915D91DA
:102F20006D917C919D9796968D919D910D90BC9100
:102F3000A02D452B462B472B59F4AC01BD01440F66
:102F4000551F661F771FF80142A753A764A775A7EF
:102F5000F80186A797A7A0ABB1AB82A593A5A4A5BE
:102F6000B5A582AB93ABA4ABB5ABAA24A394B12C0B
:102F70000CC0FD81F63019F4D1011C9206C0BD8150
:102F8000BF3F19F4F10110821D82F1E0AF16B104C8
:102F900009F419CF0E946B076C197D098E099F09EE
:102FA000D801DA962D913D914D915C91DD972617D0
:102FB00037074807590708F006CFC4010E94BC0B29
:102FC000F80184819581A681B7810196A11DB11D6B
:102FD00084839583A683B783C50102C080E090E017
:102FE00027960FB6F894DEBF0FBECDBFDF91CF910D
:102FF0001F910F91FF90EF90DF90CF90BF90AF9017
:103000009F908F907F906F905F904F903F902F9008
:103010000895CF92DF92EF92FF920F931F93CF9379
:10302000DF93EC016B011AA21BA21CA21DA21EA21F
:103030001FA218A619A61AA61BA61CA61DA61EAA84
:103040001FAA18AE19AE2AAF3BAF4CAF5DAFFC0163
:10305000FE96E082F182028313838C01085F1F4F8A
:1030600086E0F80111928A95E9F7CE011ADB86E035
:10307000F601D80101900D928A95E1F7FE01EA5B15
:10308000FF4F1082CE01DF91CF911F910F91FF90E2
:10309000EF90DF90CF9043CEFB014281538164815A
:1030A0007581FC0142835383648375831782168282
:1030B0000895CF93FB0181918111FDCFFB0180E049
:1030C00090E020E030E0CAE06191662309F124300D
:1030D000310564F56E3271F48F3F910509F034F5D6
:1030E000DA01A20FB31F12968C932F5F3F4F80E03F
:1030F00090E0EACFDC01CA9FC001CB9F900D112464
:10310000772767FD709560537109860F971FDCCF95
:103110008F3F910509F054F4243031053CF4FA0155
:10312000E20FF31F828381E090E002C080E090E034
:10313000CF9108950F9300E020E040E060E08FEB36
:1031400094E00E94C9040F910895AF92BF92CF926C
:10315000DF92EF92FF920F931F93CF93DF9300D0F4
:10316000CDB7DEB76C017B010E946B07F601778358
:1031700066838601085F1F4FB6016A5F7F4F42E09A
:1031800050E0C8010E94DA0B81E090E09A838983C5
:1031900042E050E0BE016F5F7F4FC8010E94DA0B32
:1031A00080E091E09A83898342E050E0BE016F5F46
:1031B0007F4FC8010E94DA0B1A82198242E050E068
:1031C000BE016F5F7F4FC8010E94DA0B42E050E002
:1031D000BE016F5F7F4FC8010E94DA0B42E050E0F2
:1031E000BE016F5F7F4FC8010E94DA0B6701F601D5
:1031F0008081882311F1F7016F018191811115C040
:103200005601AE18BF081A141B0494F4AB8241E0B7
:1032100050E0BE016D5F7F4FC8010E94DA0BA5012F
:10322000B701C8010E94DA0B03C08E3229F7E8CF3C
:103230007601FFEFEF1AFF0ADACF1B8241E050E080
:10324000BE016D5F7F4FC8010E94DA0BE12CFF24A5
:10325000F394FA82E98242E050E0BE016F5F7F4F53
:10326000C8010E94DA0BFA82E98242E050E0BE0116
:103270006F5F7F4FC8010E94DA0B81E090E00F90F2
:103280000F900F90DF91CF911F910F91FF90EF90D2
:10329000DF90CF90BF90AF9008954F925F926F9262
:1032A0007F928F929F92AF92BF92CF92DF92EF92D6
:1032B000FF920F931F93CF93DF93CDB7DEB7639742
:1032C0000FB6F894DEBF0FBECDBF7C015B016A0173
:1032D0000E946B072B013C018701085F1F4F4501CE
:1032E000A12CB12CC8010E94740C1816190694F078
:1032F0000E946B0764197509860997098616970657
:10330000A806B906D0F062E370E080E090E00E9489
:103310009A07E8CFF7014281538164817581818DDD
:10332000928DA38DB48D481759076A077B0741F426
:10333000858D968DC59721F406C08FEF9FEFF9C05C
:103340008EEF9FEFF6C0C8010E94900B0C970CF413
:10335000EEC04CE050E0BE016F5F7F4FC8010E949D
:10336000150C8B819C819827892798279A8B898BAC
:10337000F7014681578129813A814217530711F499
:1033800097FD06C0C8010E94AA0B8CEF9FEFD1C029
:103390008F709270892B31F0C8010E94AA0B8BEFBD
:1033A0009FEFC7C0AF80B884BA24AB24BA24A1145D
:1033B000B10419F0E12CF12C23C0C8010E94AA0B22
:1033C0008AEF9FEFB6C041E050E0BE01635F7F4FE0
:1033D000C8010E94150C8D8581111BC08D8581113E
:1033E000F2CFC8010E94ED0BC8010E94ED0BC8018D
:1033F0000E94ED0BC8010E94ED0BFFEFEF1AFF0AD0
:103400008D819E81982789279827E816F906D8F29A
:103410000AC08D859FEF980F9D878823F9F2C80118
:103420000E94ED0BF6CFE12CF12C41E050E0BE0103
:103430006D5E7F4FC8010E94150C8B89982F907C80
:1034400061F4882371F08B899FEF980F9B8B882301
:1034500041F0C8010E94ED0BF6CFC8010E94ED0BB0
:103460001B8A8B898111E1CF42E050E0BE01615F90
:103470007F4FC8010E94150C42E050E0BE01635F1F
:103480007F4FC8010E94150CC8010E94ED0BC801B6
:103490000E94ED0BC8010E94ED0BC8010E94ED0BCC
:1034A00042E050E0BE016F5E7F4FC8010E94150CE4
:1034B0008F8598898115914029F48D859E85811588
:1034C000914019F0812C912C16C089899A89811517
:1034D000944031F0C8010E94AA0B87EF9FEF29C0EA
:1034E000B6016E5F7F4F44E050E0C8010E94150CAA
:1034F00081E090E01EC089899A89982789279827BA
:103500008816990638F4C8010E94ED0B2FEF821A35
:10351000920AF1CF8FEFE81AF80AEA14FB0409F0D7
:1035200084CFC8010E94AA0B86EF9FEF02C08DEFE7
:103530009FEF63960FB6F894DEBF0FBECDBFDF914D
:10354000CF911F910F91FF90EF90DF90CF90BF90A0
:10355000AF909F908F907F906F905F904F90089565
:103560008F929F92AF92BF92CF92DF92EF92FF9293
:103570000F931F93CF93DF9300D000D0CDB7DEB76A
:103580008C015B016A0195DD4C01009709F05DC07B
:10359000F80142815381648175818091C1049091C9
:1035A000C204A091C304B091C404481759076A0724
:1035B0007B0709F44EC00E946B077801F8E0EF0E1C
:1035C000F11C6F7077277C5FC7010E94490C813026
:1035D00009F043C08CEC92E09A838983F8018281E0
:1035E0009381A481B5818B839C83AD83BE8345E3A6
:1035F00050E0BE016F5F7F4FC7010E94D00B892B47
:1036000019F4812C912C1DC0B501C8019EDD892BB8
:10361000C1F3C7010E94D70B892B99F333E0A32E86
:10362000B12CA60168E873E1C80137DE4C01F1E076
:10363000AF1AB108A114B10421F08F3F2FEF920708
:1036400081F3C7010E94BC0B08C088248394912C8D
:1036500004C09EEF892E99249A94C40126960FB631
:10366000F894DEBF0FBECDBFDF91CF911F910F91B8
:10367000FF90EF90DF90CF90BF90AF909F908F9092
:10368000089581E086270895862F0895DC01ED9145
:10369000FC91048CF58DE02D199591E08927089512
:1036A000CF93DF931F92CDB7DEB76983DC01ED9135
:1036B000FC910280F381E02D41E050E0BE016F5F9C
:1036C0007F4F19950F90DF91CF91089521E0FC0174
:1036D0008485843009F420E0822F0895FC019485CC
:1036E000FB018485981303C081E0943009F480E0E5
:1036F00008950F931F93CF93DF93EC018A018C857C
:10370000843021F00E94EA0E892B39F481E090E0A8
:103710009B838A8380E090E001C0C801DF91CF9154
:103720001F910F910895FC018485843011F00C9451
:10373000C60F80E090E00895CF93DF931F92CDB73E
:10374000DEB741E050E0BE016F5F7F4FFC01848532
:103750000E946C0F181619061CF4898190E002C0B3
:103760008FEF9FEF0F90DF91CF910895FC0184853B
:103770000C946C0F0F931F93CF93DF931F92CDB7D1
:10378000DEB78C01DC01ED91FC910480F581E02D28
:103790001995892B51F0BE016F5F7F4FF801848529
:1037A0000E94ED0F898190E002C08FEF9FEF0F9094
:1037B000DF91CF911F910F910895FC0184850C94A6
:1037C0001910CF92DF92EF92FF920F931F93CF9336
:1037D000DF93CDB7DEB7AF970FB6F894DEBF0FBE5D
:1037E000CDBF7C018B016A01CE0101960E94BF040E
:1037F000CE0109960E94C10CCE018A960E94BF0498
:103800006DE774E0CE0184960E94C809BE016C5D2C
:103810007F4FCE01019640DCAE01465D5F4FB8019F
:10382000CE0101969DDE81309105C1F4D701ED9165
:10383000FC910484F585E02D8CEC92E09DA38CA393
:103840000CA51DA52EA53FA50EA31FA328A739A72C
:10385000A601BE016C5D7F4FC7011995AF960FB6EB
:10386000F894DEBF0FBECDBFDF91CF911F910F91B6
:10387000FF90EF90DF90CF900895FC01262F1382E8
:10388000128248EE53E060E070E044835583668323
:10389000778387E093E09183808324870895FC01F8
:1038A0008485843011F00C94B00D80E00895DF928F
:1038B000EF92FF920F931F93CF93DF93EC017B0165
:1038C0008A018C85843009F045C0D12C8D2D0E9451
:1038D000B00D811102C0DC8607C08B7F8831D9F31F
:1038E000D39484E0D812F2CF8C85843099F1209162
:1038F0001002309111022F5F3F4F2115310511F455
:1039000020E030EC3093110220931002409110021D
:103910005091110220E061E00E94F90DB7016E5F45
:103920007F4FA8018C850E94740E811103C084E032
:103930008C8710C0CE01B3DF873149F061E070E0C1
:1039400080E090E00E949A07CE01A9DFEECF81E0EF
:1039500090E002C080E090E0DF91CF911F910F9145
:10396000FF90EF90DF900895CF92DF92EF92FF9259
:10397000CF93DF93EC018C85843041F10E94C70E18
:103980000E946B076B017C01CE0189DF8823A1F0C7
:1039900061E070E080E090E00E949A070E946B076F
:1039A0006C197D098E099F09683E73408105910558
:1039B00058F38C850E94D30DEC85F0E0EE0FFF1FCD
:1039C000E357FB4F1182108284E08C87DF91CF9107
:1039D000FF90EF90DF90CF900895CF93DF93EC01AD
:1039E0008C858430C9F0CE015ADF8431A9F0882358
:1039F00099F0883189F08C3169F4E881F98104808B
:103A0000F581E02DCE01199521E0892B09F420E004
:103A1000822F03C081E001C080E0DF91CF91089543
:103A20000F9300E020E040E060E085EC94E00E942D
:103A3000C9040F910895CF93DF9300D01F92CDB7A3
:103A4000DEB79B01AC01611571058105910559F047
:103A500069833A834B835C833AD229813A814B81D3
:103A60005C817ED003C060E070E0CB010F900F90CE
:103A70000F900F90DF91CF910895CF92DF92EF9248
:103A8000FF926B017C0162177307840795075CF452
:103A9000CA01B9016C197D098E099F09CCDF6C0D33
:103AA0007D1D8E1D9F1DFF90EF90DF90CF9008959C
:103AB000CF93CFB7F8948091CE04811127C0E9EC61
:103AC000F1E08491E3E8F1E09491E82FF0E0EE0F6B
:103AD000FF1FEC50FE4FA591B4918C91892321F4E6
:103AE00061E085E30E94AE0861E085E30E9475080D
:103AF0008CB580618CBD8CB580648CBD61E084E345
:103B00000E94750861E083E30E9475088091CE04ED
:103B10008F5F8093CE04CFBFCF910895A1E21A2E7C
:103B2000AA1BBB1BFD010DC0AA1FBB1FEE1FFF1F61
:103B3000A217B307E407F50720F0A21BB30BE40BB1
:103B4000F50B661F771F881F991F1A9469F76095F8
:103B50007095809590959B01AC01BD01CF010895B2
:103B6000052E97FB16F400940FD057FD05D0D6DF35
:103B700007FC02D046F408C0509540953095219539
:103B80003F4F4F4F5F4F0895909580957095619589
:103B90007F4F8F4F9F4F0895EE0FFF1F0590F491B9
:103BA000E02D199469279627692778278727782792
:103BB00008950DD0A59F900DB49F900DA49F800DEA
:103BC000911D112408950790F691E02D1994A29F5C
:103BD000B001B39FC001A39F700D811D1124911DE1
:103BE000B29F700D811D1124911D0895CF93DF9315
:103BF0008230910510F482E090E0E091D104F091E0
:103C0000D20420E030E0A0E0B0E0309739F140810C
:103C1000518148175907B8F04817590771F4828144
:103C20009381109729F013969C938E9312972CC032
:103C30009093D2048093D10427C02115310531F02F
:103C40004217530718F0A901DB0101C0EF019A01E7
:103C5000BD01DF010280F381E02DD7CF21153105B1
:103C6000F9F0281B390B2430310580F48A819B81BF
:103C70006115710521F0FB019383828304C0909349
:103C8000D2048093D104FE01329644C0FE01E20FBB
:103C9000F31F8193919322503109398328833AC0CD
:103CA0002091CF043091D004232B41F420910202C3
:103CB000309103023093D0042093CF04209100026E
:103CC000309101022115310541F42DB73EB74091E5
:103CD000040250910502241B350BE091CF04F091B2
:103CE000D004E217F307A0F42E1B3F0B2817390767
:103CF00078F0AC014E5F5F4F2417350748F04E0F48
:103D00005F1F5093D0044093CF048193919302C0DE
:103D1000E0E0F0E0CF01DF91CF910895CF93DF9302
:103D2000009709F487C0FC01329713821282C09178
:103D3000D104D091D204209781F420813181280FC1
:103D4000391F8091CF049091D0048217930779F5A1
:103D5000F093D004E093CF046DC0DE0120E030E0AA
:103D6000AE17BF0750F412964D915C9113979D01C9
:103D70004115510509F1DA01F3CFB383A2834081E4
:103D80005181840F951F8A179B0771F48D919C9127
:103D90001197840F951F02969183808312968D91BF
:103DA0009C911397938382832115310529F4F09315
:103DB000D204E093D1043EC0D9011396FC93EE9354
:103DC00012974D915D91A40FB51FEA17FB0779F487
:103DD00080819181840F951F0296D90111969C9341
:103DE0008E938281938113969C938E931297E0E039
:103DF000F0E08A819B81009719F0FE01EC01F9CF78
:103E0000CE01029628813981820F931F2091CF0421
:103E10003091D0042817390769F4309729F41092AB
:103E2000D2041092D10402C013821282D093D00423
:103E3000C093CF04DF91CF9108958F929F92AF925C
:103E4000BF92CF92DF92EF92FF92CF93DF93EC017C
:103E5000688179818A819B81611571058105910550
:103E600021F464E279ED8BE597E02DE133EF41E059
:103E700050E076DE49015A019B01AC01A7EAB1E4AA
:103E800098DE6B017C01ACEEB4EFA50194012ED15C
:103E9000C60ED71EE81EF91EF7FE06C081E0C81A3E
:103EA000D108E10880E8F80AC882D982EA82FB8258
:103EB000C701B6019F77DF91CF91FF90EF90DF9020
:103EC000CF90BF90AF909F908F900895B6CF86E02F
:103ED00092E0B3CF609306027093070280930802CA
:103EE0009093090208956F927F928F929F92AF9262
:103EF000BF92CF92DF92EF92FF920F931F93CF93D7
:103F0000DF93EC01CB01209779F4DF91CF911F91E2
:103F10000F91FF90EF90DF90CF90BF90AF909F9068
:103F20008F907F906F9062CEFE01E60FF71F9E018B
:103F300022503109E217F30708F4A8C0D9010D9106
:103F40001C91119706171707B0F00530110508F4FA
:103F50009BC0A801445051094617570708F494C064
:103F600002501109061B170B019311936D937C935B
:103F7000CF01D4DE89C05B01A01AB10A4E01800EC8
:103F8000911EA091D104B091D204612C712C60E0FB
:103F900070E0109709F449C0A815B905C9F5ED906E
:103FA000FC901197670142E0C40ED11CCA14DB04D7
:103FB00078F147018A189B08640142E0C40ED11CC5
:103FC0001296BC9012971396AC91B5E0CB16D10423
:103FD00040F0B282A38391828082D9018D939C9319
:103FE00009C00E5F1F4F0E0D1F1DF90111830083C5
:103FF000EB2DFA2F6115710531F0DB011396FC935F
:10400000EE93129741C0F093D204E093D1043CC0E8
:104010006D917C9111976616770608F43B01BD01FE
:1040200012960D90BC91A02DB4CF6091CF047091E9
:10403000D00468157905E9F468167906D0F4409142
:104040000002509101024115510541F44DB75EB790
:104050006091040270910502461B570BE417F507A7
:10406000A8F4F093D004E093CF04F9019183808306
:104070000BC0BCDD7C01009749F0A801BE0124D033
:10408000CE014CDEC70104C0CE0102C080E090E04A
:10409000DF91CF911F910F91FF90EF90DF90CF9024
:1040A000BF90AF909F908F907F906F900895FB018D
:1040B000DC0104C08D910190801921F441505040E1
:1040C000C8F7881B990B0895FB01DC0102C0019021
:1040D0000D9241505040D8F70895FB01DC0101904A
:1040E0000D920020E1F70895B7FF63CD62DD821BDA
:0840F000930B0895F894FFCF33
:1040F8000000D304200001000000DEADBEFFFF0178
:1041080000C05374617274696E672E2E2E0041745C
:1041180074656D7074696E6720746F206F62746166
:10412800696E204448435020616464726573732E3D
:10413800004661696C656420746F206163717569FC
:104148007265204448435020616464726573732C1F
:1041580020747279696E6720616761696E20696E83
:104168002035207365636F6E64732E00416371752B
:1041780069726564204448435020616464726573C1
:10418800733A200052656164792E0A007564707C68
:10419800726563767C206E62797465733A20002CB0
:1041A80020646174613A2000000000001703FF04D6
:1041B8006C0285027702F602000000008804000005
:1041C8000000E409A80AFA0900000000940BDA0BC1
:1041D800900BED0B310CAA0B490CBC0BD00BD60C79
:1041E800D70B740C150C750B7C0B8C0B57495A6E3E
:1041F80065740000000000501B791B931B9C1BBAC0
:104208001BDD1B571CE11BB61BB41CED1C661B41B8
:084218001B441B6E1B461B003A
:00000001FF
