:100000000FC100003DC100003BC1000039C100002C
:1000100037C1000035C1000033C1000031C100000C
:100020002FC100002DC100002BC1000029C100001C
:1000300027C1000025C1000023C1000021C100002C
:100040001FC100001DC100001BC1000019C100003C
:1000500017C1000015C1000013C10000E7C6000071
:100060000FC100009FC30000D3C3000009C10000FE
:1000700007C1000005C1000003C1000001C100006C
:10008000FFC00000FDC00000FBC00000F9C0000080
:10009000F7C00000F5C00000F3C00000F1C0000090
:1000A000EFC00000EDC00000EBC00000E9C00000A0
:1000B000E7C00000E5C00000E3C00000E1C00000B0
:1000C000DFC00000DDC00000DBC00000D9C00000C0
:1000D000D7C00000D5C00000D3C00000D1C00000D0
:1000E000CFC000002F083208210825082B08690816
:1000F00036083A084008440848084E08520856088E
:1001000069085C086008640800000A0B02090C0D0D
:100110000E080703040100000000000000000000BA
:1001200000000000000000000000000000000000CF
:10013000000000001211100000000000000000008C
:1001400000000000000000000000000000000102AC
:1001500010202008081020401020408002010201D9
:100160000804020101020408102040808040201091
:1001700008040201800402018040201008040201EA
:100180000804020101020408102040800102040852
:10019000102040800505050507050808080802022B
:1001A00002020A0A08080404040401010101010111
:1001B00001010303030303030303040707070C0CF4
:1001C0000C0C0C0C0C0C02020202060606060606BB
:1001D00006060B0B0B0B0B0B0B0B00002200250074
:1001E00028002B002E003100340002010000050120
:1001F00008010B0100002100240027002A002D0027
:100200003000330001010000040107010A0141012F
:100210003A04E504CD09600B270D8F138F18051DD7
:1002200011241FBECFEFD1E2DEBFCDBF00E00CBF77
:1002300013E0A0E0B2E0E2EEF0E400E00BBF02C0A9
:1002400007900D92A832B107D9F724E0A8E2B3E0F5
:1002500001C01D92AD3CB207E1F712E0C0E2D2E06E
:1002600000E006C022970109FE010BBF0E94D81DC5
:10027000CE30D10780E00807A9F7CED50C946F20C7
:10028000BFCE0F9300E020E040E060E083E693E023
:1002900075D360E570E083E493E00E94310A88E260
:1002A00093E00F910C94B60CEF92FF920F931F9373
:1002B000CF93DF9300D000D0CDB7DEB726E040E08B
:1002C00052EC61E070E089E693E00AD262E172E00C
:1002D00089E693E0FFD361E084E0FCD661E084E04E
:1002E00032D78091490390914A030197D9F06EE18A
:1002F00072E089E693E0EED36AE072E087E794E08B
:1003000098D790934A0380934903019751F361E48E
:1003100072E089E693E0DED368E873E180E090E084
:10032000FED5DFCF6CE772E089E693E0A9D38E01BA
:100330000D5F1F4F7E0187E0E80EF11C67E774E058
:10034000CE0101960E94A809F80161918F014AE04F
:1003500050E089E693E080D46CE172E089E693E0B6
:100360008FD30E151F0551F789E693E091D383E4EF
:1003700093E00E94EF096AE972E088E293E00E944C
:100380003E0C64E972E089E693E0A4D326960FB6AA
:10039000F894DEBF0FBECDBFDF91CF911F910F91BB
:1003A000FF90EF900895EF92FF920F931F93CF93DA
:1003B000DF93CDB7DEB769970FB6F894DEBF0FBEF7
:1003C000CDBF63E473E0CE0101960E94F40A88E297
:1003D00093E00E94690C7C01181619060CF064C0A9
:1003E0006CE972E089E693E04BD34AE050E0B70154
:1003F00089E693E01ED4E0912803F0912903008C54
:10040000F18DE02D48E150E06BE473E088E293E089
:1004100019956FEA72E089E693E032D36BE473E0FA
:10042000CE0144968AD4970140E050E0BE016C5E54
:100430007F4FCE010E96ACD4BE01625F7F4F89E63E
:1004400093E038D3CE010E960DD4CE0144960AD453
:1004500040913D0350913E038CEC92E09F878E8744
:100460000091390310913A0320913B0330913C03F2
:10047000088B198B2A8B3B8BBE01625F7F4F88E212
:1004800093E00E94C50BE0912803F09129030280BC
:10049000F381E02DA7016BE473E088E293E0199506
:1004A00088E293E00E94CC0B69960FB6F894DEBF09
:1004B0000FBECDBFDF91CF911F910F91FF90EF90B5
:1004C0000895FC01818D228D90E0805C9F4F821BFE
:1004D00091098F7399270895FC01918D828D98174A
:1004E00031F0828DE80FF11D858D90E008958FEF3A
:1004F0009FEF0895FC01918D828D981761F0828D98
:10050000DF01A80FB11D5D968C91928D9F5F9F7347
:10051000928F90E008958FEF9FEF089581E394E02C
:10052000892B39F080E090E0892B19F09AD1811164
:1005300025C080E090E0892B41F080E090E0892B9D
:1005400021F00E94000081111CC080E090E0892B06
:1005500041F080E090E0892B21F00E9400008111A1
:1005600013C080E090E0892BA1F080E090E0892B1F
:1005700081F00E94000081110AC008950E940000CD
:10058000D8CF0E940000E1CF0E940000EACF0C9477
:1005900000000895FC01848DDF01A80FB11DA35A4E
:1005A000BF4F2C91848D90E001968F739927848F93
:1005B000A689B7892C93A089B1898C9180648C938A
:1005C000938D848D981306C00288F389E02D808175
:1005D0008F7D80830895CF93DF93EC01888D8823EE
:1005E000C1F0EA89FB89808185FD05C0A889B989A8
:1005F0008C9186FD0EC00FB607FCF5CF808185FF7C
:10060000F2CFA889B9898C9185FFEDCFCE01C2DFE9
:10061000E8CFDF91CF910895CF92DF92FF920F93B1
:100620001F93CF93DF931F92CDB7DEB76C01DC0130
:100630005B969C915B975C968C915C97981307C036
:100640005096ED91FC915197808185FD31C0F60166
:10065000038D10E00F5F1F4F0F731127F02EF6016F
:10066000848DF81210C00FB607FCF9CFD601509652
:10067000ED91FC915197808185FFF1CFC60169838F
:1006800089DF6981ECCF838DE80FF11DE35AFF4FBD
:100690006083D6015B960C935B975296ED91FC912B
:1006A000539780818062808381E058968C930DC03F
:1006B000D6015696ED91FC91579760835096ED9137
:1006C000FC91519780818064808381E090E00F905D
:1006D000DF91CF911F910F91FF90DF90CF90089500
:1006E000BF92CF92DF92EF92FF92CF93DF93EC0114
:1006F0006A017B01B22EE889F98982E08083411585
:1007000081EE580761057105A1F060E079E08DE3A5
:1007100090E0A70196010E94831D215031094109F3
:1007200051095695479537952795211580E138074A
:1007300098F0E889F989108260E874E88EE190E029
:10074000A70196010E94831D2150310941095109D9
:100750005695479537952795EC85FD853083EE8531
:10076000FF852083188EEC89FD89B082EA89FB8998
:10077000808180618083EA89FB89808188608083B1
:10078000EA89FB89808180688083EA89FB8980818E
:100790008F7D8083DF91CF91FF90EF90DF90CF909E
:1007A000BF9008951F920F920FB60F9211240BB6AF
:1007B0000F922F938F939F93EF93FF93E091790381
:1007C000F0917A038081E0917F03F091800382FDB4
:1007D00012C09081809182038F5F8F732091830379
:1007E000821751F0E0918203F0E0E759FC4F958FBA
:1007F0008093820301C08081FF91EF919F918F913F
:100800002F910F900BBE0F900FBE0F901F90189559
:100810001F920F920FB60F9211240BB60F922F93C7
:100820003F934F935F936F937F938F939F93AF9378
:10083000BF93EF93FF9389E693E0ACDEFF91EF91D6
:10084000BF91AF919F918F917F916F915F914F91E8
:100850003F912F910F900BBE0F900FBE0F901F90E6
:10086000189589E693E02DDE21E0892B09F420E03C
:10087000822F089510926C0310926B0388EE93E020
:10088000A0E0B0E080936D0390936E03A0936F039C
:10089000B09370038CEB92E090936A0380936903AA
:1008A00085EC90E0909376038093750384EC90E060
:1008B000909378038093770380EC90E090937A0391
:1008C0008093790381EC90E090937C0380937B0389
:1008D00082EC90E090937E0380937D0386EC90E021
:1008E0009093800380937F0310928203109283037E
:1008F00010928403109285030895AF92BF92CF9215
:10090000DF92EF92FF920F931F93CF93DF936C01CF
:100910007B01C0E0D0E000E010E0F601EC0FFD1F2D
:100920004AE050E06281C70197D15C016EE2C701E5
:10093000A8D08A0D9B1D080F191F2196C330D10521
:1009400061F74AE050E0F6016581C70185D1800F6B
:10095000911FDF91CF911F910F91FF90EF90DF904A
:10096000CF90BF90AF9008952CEC32E0FC01318322
:100970002083128213821482158208950F93FC0142
:100980008CEC92E09183808362834383248305838C
:100990000F9108952CEC32E0FC0131832083FB01A0
:1009A0004081518162817381FC014283538364835E
:1009B00075830895FB014081518162817381FC013F
:1009C000428353836483758308958CEC92E0909303
:1009D00007048093060410920804109209041092F0
:1009E0000A0410920B040895CF92DF92EF92FF92C7
:1009F0000F931F93CF93DF936C017A01EB01E60E07
:100A0000F71E00E010E0CE15DF0561F06991D60118
:100A1000ED91FC910190F081E02DC6011995080F30
:100A2000191FF1CFC801DF91CF911F910F91FF9056
:100A3000EF90DF90CF9008956115710581F0DB0193
:100A40000D900020E9F7AD0141505109461B570BAD
:100A5000DC01ED91FC910280F381E02D199480E09E
:100A600090E00895DC01ED91FC91DB0114964D912D
:100A70005C9115976D917C910280F381E02D199422
:100A8000DBCFDC01ED91FC910190F081E02D199418
:100A90000F931F93CF93DF93EC016DE0F2DF8C0196
:100AA0006AE0CE01EEDF800F911FDF91CF911F91A1
:100AB0000F9108950F931F93CF93DF93EC01D2DF33
:100AC0008C01CE01E5DF800F911FDF91CF911F9147
:100AD0000F9108950F931F93CF93DF93EC01ACDF39
:100AE0008C01CE01D5DF800F911FDF91CF911F9137
:100AF0000F9108958F929F92AF92BF92CF92DF9203
:100B0000EF92FF920F931F93CF93DF93CDB7DEB792
:100B1000A1970FB6F894DEBF0FBECDBF7C01C42EE7
:100B2000E52FCB01D22E19A221E02D1510F02AE0DD
:100B3000D22E8E010F5D1F4F8D2C912CA12CB12C2C
:100B40006C2D7E2FA50194010E94831D8C2DD29EB9
:100B500080191124015011098A3014F4805D01C0FC
:100B6000895CF8018083211531054105510521F08B
:100B7000C22EE32FCA01E4CFB801C7015DDFA19601
:100B80000FB6F894DEBF0FBECDBFDF91CF911F919E
:100B90000F91FF90EF90DF90CF90BF90AF909F901C
:100BA0008F900895CF92DF92EF92FF920F931F9351
:100BB000CF93DF93EC016A017B012115310579F4B4
:100BC000E881F9810190F081E02D642FDF91CF91D0
:100BD0001F910F91FF90EF90DF90CF9019942A30E2
:100BE0003105D9F477FF18C06DE24BDF8C01442743
:100BF0005527BA014C195D096E097F092AE0CE011B
:100C000079DF800F911FDF91CF911F910F91FF909E
:100C1000EF90DF90CF9008952AE0B701A601CE01B2
:100C2000DF91CF911F910F91FF90EF90DF90CF90C8
:100C300061CF9A01AB01662757FD6095762FB2CF41
:100C40002115310541F4DC01ED91FC910190F08119
:100C5000E02D642F19944ECF9A01462F50E060E0AA
:100C600070E0EECFFC01808191810C94831ECF93C4
:100C7000DF93EC0188819981009711F00E94831E17
:100C8000198218821D821C821B821A82DF91CF91E9
:100C900008950F931F93CF93DF93EC018B016F5F48
:100CA0007F4F888199810E94681F009731F0998356
:100CB00088831B830A8381E001C080E0DF91CF91AC
:100CC0001F910F910895CF93DF93EC018881998153
:100CD000892B29F08A819B818617970758F4CE01CA
:100CE000D8DF882341F08C819D81892B19F4E8811C
:100CF000F981108281E0DF91CF910895EF92FF9208
:100D00000F931F93CF93DF93EC017B018A01BA010C
:100D1000DADF811103C0CE01AADF07C01D830C8377
:100D2000B701888199810E946220CE01DF91CF9125
:100D30001F910F91FF90EF900895FC011182108296
:100D400013821282158214826115710551F0FB0124
:100D500001900020E9F7AF0141505109461B570BA4
:100D6000CDCF0895CF93DF93EC016115710559F054
:100D7000FB0101900020E9F7AF0141505109461BEA
:100D8000570BBCDF01C073DFCE01DF91CF91089517
:100D9000BF92CF92DF92EF92FF920F931F93CF9368
:100DA000DF936C017B01EA0189012417350720F4E8
:100DB0008D2FE901042F182F6BE972E0C601BDDF0A
:100DC000D70114968D919C911597C817D907C0F437
:100DD0008017910708F48C01D701ED91FC911197D0
:100DE000E00FF11FB08010826D917C916C0F7D1F20
:100DF000C601B8DFD701ED91FC91E00FF11FB08281
:100E0000C601DF91CF911F910F91FF90EF90DF907E
:100E1000CF90BF9008950895A7D0FDDF45DACEE8C2
:100E2000D2E0C1DA2097E9F379DBFBCF1F920F9272
:100E30000FB60F9211242F933F938F939F93AF93ED
:100E4000BF9380910D0490910E04A0910F04B09176
:100E5000100430910C0423E0230F2D3720F4019669
:100E6000A11DB11D05C026E8230F0296A11DB11DCD
:100E700020930C0480930D0490930E04A0930F0410
:100E8000B09310048091110490911204A091130466
:100E9000B09114040196A11DB11D8093110490938B
:100EA0001204A0931304B0931404BF91AF919F91C7
:100EB0008F913F912F910F900FBE0F901F9018951B
:100EC0002FB7F89460910D0470910E0480910F0477
:100ED000909110042FBF08953FB7F89480911104AA
:100EE00090911204A0911304B091140426B5A89B0C
:100EF00005C02F3F19F00196A11DB11D3FBF662708
:100F0000782F892F9A2F620F711D811D911D42E04C
:100F1000660F771F881F991F4A95D1F70895CF92C2
:100F2000DF92EF92FF92CF93DF936B017C01D4DFCE
:100F3000EB01C114D104E104F10479F039D1CCDF23
:100F40006C1B7D0B683E7340A0F381E0C81AD1088A
:100F5000E108F108C851DC4FECCFDF91CF91FF9051
:100F6000EF90DF90CF900895789484B5826084BD2F
:100F700084B5816084BD85B5826085BD85B581609D
:100F800085BDEEE6F0E0808181608083E1E8F0E0FD
:100F90001082808182608083808181608083E0E82C
:100FA000F0E0808181608083E1EBF0E0808184600B
:100FB0008083E0EBF0E0808181608083E1E9F0E014
:100FC000808182608083808181608083E0E9F0E0BD
:100FD000808181608083E1EAF0E0808182608083AB
:100FE000808181608083E0EAF0E08081816080839D
:100FF000E1E2F1E080818260808380818160808392
:10100000E0E2F1E0808181608083EAE7F0E08081C6
:10101000846080838081826080838081816080831E
:101020008081806880831092C100089590E0FC0167
:101030003197E231F10508F04CC0EE58FF4F0C94A7
:10104000C11D809180008F7703C0809180008F7DCB
:1010500080938000089580918000877FF9CF84B5C8
:101060008F7702C084B58F7D84BD08958091B000D4
:101070008F7703C08091B0008F7D8093B00008957A
:10108000809190008F7707C0809190008F7D03C082
:1010900080919000877F8093900008958091A000B8
:1010A0008F7707C08091A0008F7D03C08091A00042
:1010B000877F8093A0000895809120018F7707C0DB
:1010C000809120018F7D03C080912001877F8093D4
:1010D00020010895CF93DF9390E0FC01E25BFE4F87
:1010E0002491FC01EC56FE4F8491882349F190E055
:1010F000880F991FFC01EC50FE4FA591B4918652C8
:101100009E4FFC01C591D4919FB7611108C0F8941E
:101110008C91209582238C93888182230AC062302F
:1011200051F4F8948C91322F309583238C938881DD
:10113000822B888304C0F8948C91822B8C939FBF60
:10114000DF91CF9108950F931F93CF93DF931F9259
:10115000CDB7DEB7282F30E0F901E85FFE4F84916C
:10116000F901E25BFE4F1491F901EC56FE4F049138
:101170000023C1F0882319F0698358DF6981E02FCB
:10118000F0E0EE0FFF1FE652FE4FA591B4919FB71E
:10119000F8948C91611103C01095812301C0812BBB
:1011A0008C939FBF0F90DF91CF911F910F91089566
:1011B00008952091C704222399F03FB7F894209115
:1011C000C704213059F42DB32093C5044DB32091A9
:1011D000C604209524232DBB3FBF02C03093C50415
:1011E0008CBD9DBD08958091C704882361F09FB791
:1011F000F8942091C7048091C504213019F48DBB67
:101200009FBF08958FBF089544E050E0BC0181E086
:1012100090E00C94661144E050E0BC0185E090E061
:101220000C94661144E050E0BC018FE090E00C9417
:101230006611AF92BF92CF92DF92EF92FF920F931F
:101240001F93CF93DF9300D000D0CDB7DEB76C01F2
:101250005B0180917F04811106C08CE594E086D308
:1012600081E080937F0485E194E0F6019783868393
:1012700083EA94E0C6D780E590E09BDF46E050E04B
:10128000B50189E090E00E94661100E020E040E0B6
:1012900060E0CE01019672DBCE010396C3DFA3DFCF
:1012A00010EAE12E1FE0F12E00E010E020E63AEE19
:1012B00040E050E0B501F601868197810E94FE175B
:1012C0005C018130910591F580E590E072DFF601D7
:1012D00066817781CE0101960E944D13CE0103965F
:1012E000A1DFF60166817781CE0101960E9463132A
:1012F000CE01039689DFF60166817781CE010196E2
:101300000E945813CE01039686DF6DDFF6016681D9
:101310007781CE0101960E946E134B815C816D81B5
:101320007E81F6014283538364837583C5012696CB
:101330000FB6F894DEBF0FBECDBFDF91CF911F91E6
:101340000F91FF90EF90DF90CF90BF90AF900895F6
:10135000CF93DF93EC0108DB80E590E02ADFBE014C
:101360006E5F7F4F44E050E08FE090E00E947C127F
:101370003ADFCE01DF91CF9108952CEC32E0FC01F1
:1013800031832083FB014281538164817581FC019B
:10139000428353836483758308950F9300E020E0B4
:1013A00040E060E08FE894E0E9DA87E794E00F91AD
:1013B000DBCACF93DF931F92CDB7DEB76983DC0121
:1013C000ED91FC910280F381E02D41E050E0BE01FF
:1013D0006F5F7F4F19950F90DF91CF910895EF9236
:1013E000FF920F931F93CF93DF93CDB7DEB72D9767
:1013F0000FB6F894DEBF0FBECDBF7C0100E010E059
:10140000602FCE0101960E94321CCE0101960E94EF
:10141000441C811114C0F7014481558120E061E032
:10142000802FDCD3802F28D4F70184819581F801A7
:10143000EE0FFF1FE957FB4F9183808305C00F5FBD
:101440001F4F04301105E1F62D960FB6F894DEBF5C
:101450000FBECDBFDF91CF911F910F91FF90EF9005
:101460000895FC011382128282ED92E091838083C1
:10147000758364830895BF92CF92DF92EF92FF92BB
:101480000F931F93CF93DF93CDB7DEB72D970FB692
:10149000F894DEBF0FBECDBF8C0147E8C42E44E0F8
:1014A000D42EB12CE12CF12C6B2DCE0101960E9493
:1014B000321CD6012D913D916D01F80184819581F9
:1014C00028173907B1F4CE0101960E94441C8431DB
:1014D00069F0CE0101960E94441C8C3151F4CE017A
:1014E00001960E94881B892B99F003C0EE24E39497
:1014F000F12CB394F4E0BF12D7CFEF2871F4D801E8
:10150000ED91FC910480F581E02DC801199505C08D
:10151000CE0101960E94A91CECCF2D960FB6F8942F
:10152000DEBF0FBECDBFDF91CF911F910F91FF9016
:10153000EF90DF90CF90BF9008957F928F929F920F
:10154000AF92BF92CF92DF92EF92FF920F931F93D1
:10155000CF93DF93CDB7DEB72D970FB6F894DEBFEC
:101560000FBECDBF6C015B014A0185DF57E8E52E58
:1015700054E0F52E712C00E010E0672DCE010196AD
:101580000E94321CF701219131917F01F601848183
:1015900095812817390731F4CE0101960E94441C29
:1015A0008731C9F07394F4E07F12E7CFC8012D961C
:1015B0000FB6F894DEBF0FBECDBFDF91CF911F9164
:1015C0000F91FF90EF90DF90CF90BF90AF909F90E2
:1015D0008F907F900895A401B501CE0101960E94DD
:1015E0006E1B080F191FDECFBF92CF92DF92EF92D2
:1015F000FF920F931F93CF93DF93CDB7DEB72D9755
:101600000FB6F894DEBF0FBECDBF8C016B01CB01CE
:1016100032DF67E8E62E64E0F62EB12C6B2DCE01AA
:1016200001960E94321CF701219131917F01F60150
:10163000848195812817390751F5CE0101960E94C2
:10164000441C873111F08C3111F5CE0101960E94B6
:10165000881B892BE1F08B819C81F8019383828325
:101660008D819E81AF81B88584839583A683B7835E
:1016700049855A856B857C8540875187628773874A
:1016800087E093E0918380838D85848708C0B3943D
:10169000F4E0BF12C3CF64E0C8010E94321CC8014D
:1016A0002D960FB6F894DEBF0FBECDBFDF91CF9160
:1016B0001F910F91FF90EF90DF90CF90BF90089512
:1016C0000F9300E020E040E060E085E994E056D927
:1016D0000F910895DC01ED91FC91008CF18DE02DCE
:1016E00019942CEC32E0FC0131832083FB01418909
:1016F000528963897489FC014283538364837583AF
:101700000895FC01858996890895FC01818D928D4B
:101710000895CF93DF931F92CDB7DEB76983DC01C5
:10172000ED91FC910280F381E02D41E050E0BE019B
:101730006F5F7F4F19950F90DF91CF910895CF93F1
:10174000DF93EC01898D9A8D892B41F0E881F98135
:101750000680F781E02DCE011995F4CFDF91CF916E
:101760000895CF93DF93EC018C85843059F010D22B
:10177000EC85F0E0EE0FFF1FE957FB4F118210825E
:1017800084E08C87DF91CF910895FC01108E178A39
:101790006E5F7F4F848585C4FC018485C4C4CF936C
:1017A000DF93EC019A018F89988DAB01BC018C8588
:1017B00036D42F89388D280F391F388F2F8BDF9122
:1017C000CF9108950F931F93CF93DF931F92CDB7BF
:1017D000DEB78C01FC01818D928D892B51F041E0A7
:1017E00050E0BE016F5F7F4F84856BD318161906DA
:1017F0001CF08FEF9FEF08C0F801818D928D01974B
:10180000928F818F898190E00F90DF91CF911F910E
:101810000F910895CF93DF93EC01898D9A8D0097F6
:1018200019F48FEF9FEF0FC04817590708F0AC016C
:101830008C8547D318161906A4F7298D3A8D281BD5
:10184000390B3A8F298FDF91CF910895CF93DF9392
:101850001F92CDB7DEB7FC01218D328D232B41F0D5
:10186000BE016F5F7F4F8485ADD3898190E002C058
:101870008FEF9FEF0F90DF91CF910895FF920F931D
:101880001F93CF93DF93EC018B018C858430D1F4CF
:10189000F12C8F2D5AD1811102C0FC8606C08831EF
:1018A000E1F3F39484E0F812F4CF8C85843051F0A6
:1018B0001E870D871A8E198E20E0A80162E08ED156
:1018C00081E001C080E0DF91CF911F910F91FF90E7
:1018D00008950F931F93CF93DF93CDB7DEB728976B
:1018E0000FB6F894DEBF0FBECDBF8C01DC01ED91C9
:1018F000FC910284F385E02D1995F80184853BD392
:101900001816190634F548E050E0BE016F5F7F4FAE
:10191000D8011C968C91D5D218161906E4F4BE0194
:101920006F5F7F4FC8010F9645D88D8190E0982F4B
:1019300088272E81820F911DF801968B858B8F81D0
:1019400090E0982F88272885820F911D928F818F94
:1019500002C080E090E028960FB6F894DEBF0FBE7C
:10196000CDBFDF91CF911F910F910895FC0113829C
:10197000128248EE53E060E070E044835583668352
:1019800077838CED92E09183808384E08487CF011C
:101990000F960C94B404CF92DF92EF92FF920F93C4
:1019A0001F93CF93DF93CDB7DEB7AF970FB6F89401
:1019B000DEBF0FBECDBF7C018B016A01CE01019657
:1019C0000E94B404CE010996D1DFCE018A960E940E
:1019D000B40467E774E0CE018496CFDCBE016C5D91
:1019E0007F4FCE0101960E944118AE01465D5F4FC8
:1019F000B801CE0101960E94A51A81309105C1F46B
:101A0000D701ED91FC910088F189E02D8CEC92E0FA
:101A10009DA38CA30CA51DA52EA53FA50EA31FA3BA
:101A200028A739A7A601BE016C5D7F4FC701199594
:101A3000AF960FB6F894DEBF0FBECDBFDF91CF914A
:101A40001F910F91FF90EF90DF90CF9008950F932B
:101A500000E020E040E060E08BE994E00E94BE04FA
:101A60000F910895CF92DF92EF92FF920F9330E0A3
:101A7000C12CF2E1DF2EFAE7EF2EF12C4C155D05BB
:101A80006E057F0540F4F694E794D794C7943F5FC2
:101A90003630A1F737E041E04327211102C050E77B
:101AA00001C050E5242F30E03595279523700C7048
:101AB000202B252BFC012083417041830F91FF9047
:101AC000EF90DF90CF90089590E0982F882744E022
:101AD00050E0845F9B4FFAC3282F30E02C5F3F4FCC
:101AE000922F8827860F971F1AC462E070E0F4CF08
:101AF000FB01282F30E02C5F3F4F922F8827642F67
:101B00008E0F9F1F61C3CF93DF93C82FD62F472F10
:101B100064E070E0EDDF4D2F65E070E08C2FDF9129
:101B2000CF91E6CF462F62E070E0E2CFCF93DF9314
:101B3000C82FD62F472F60E170E0DADF4D2F61E12B
:101B400070E08C2FDF91CF91D3CF0F931F93CF9362
:101B5000DF9300D0CDB7DEB7182F00E021E040E0E2
:101B600059E06DE370E0CE0101967CDF89819A81B6
:101B700020DB63E070E0812FAFDF8B8334DB8B8170
:101B80000F900F900F90DF91CF911F910F910895BB
:101B90000F931F93CF93DF931F921F92CDB7DEB7A2
:101BA000182F00E021E040E059E06DE370E0CE0145
:101BB000019658DF89819A81FCDA40E150E0612F7B
:101BC00083EA94E055D56FEF812FACDF0CDB0F90EB
:101BD0000F90DF91CF911F910F910895CF92DF92D7
:101BE000EF92FF920F931F93CF93DF931F921F9259
:101BF000CDB7DEB7182FD62E7A01C22E8FEF860F03
:101C0000853070F5812FC4DF00E021E040E059E02D
:101C10006DE370E0CE01019625DF89819A81C9DAF2
:101C20004D2D4C2960E070E0812F62DFE114F1045A
:101C300011F0B7010AC06091A1047091A2046F5F16
:101C40007F4F7093A2046093A104812F5CDF41E079
:101C500050E0612F83EA94E00BD5C5DA81E001C042
:101C600080E00F900F90DF91CF911F910F91FF9027
:101C7000EF90DF90CF9008950F931F93CF93DF9352
:101C80001F921F92CDB7DEB7182F00E021E040E091
:101C900059E06DE370E0CE010196E4DE89819A811E
:101CA00088DA63E070E0812F17DF833119F09BDA67
:101CB00080E008C042E050E0612F83EA94E0D8D48D
:101CC00092DA81E00F900F90DF91CF911F910F91E9
:101CD0000895CF92DF92EF92FF920F931F93CF93CD
:101CE000DF931F921F92CDB7DEB7182F7B016A01D9
:101CF000FB0180818F3F51F481818F3F99F4828174
:101D00008F3F81F483818F3F69F42AC081110AC01B
:101D1000FB018181811106C08281811103C0838111
:101D20008823F1F0C114D104D9F000E021E040E0B3
:101D300059E06DE370E0CE01019694DE89819A81CD
:101D400038DAB701812FC0DEB601812FEFDE44E023
:101D500050E0612F83EA94E08BD445DA81E001C042
:101D600080E00F900F90DF91CF911F910F91FF9026
:101D7000EF90DF90CF9008950F931F93CF93DF9351
:101D80001F921F92CDB7DEB7182F00E021E040E090
:101D900059E06DE370E0CE01019664DE89819A819D
:101DA00008DA48E050E0612F83EA94E061D41BDA5E
:101DB0000F900F90DF91CF911F910F910895BF92D7
:101DC000CF92DF92EF92FF920F931F93CF93DF9307
:101DD00000D0CDB7DEB7B82E6B017A01413088E074
:101DE000580718F0E12C98E0F92E00E021E040E0DF
:101DF00059E06DE370E0CE01019634DE89819A816D
:101E0000D8D96B2D83EA94E0BAD28C0163E070E0FC
:101E10008B2D62DE8B83E7D98B81873111F08C317A
:101E200029F4C6D90E151F0500F302C0E12CF12CD0
:101E300000E021E040E059E06DE370E0CE01019662
:101E400011DE89819A81B5D99701A6016B2D83EAAC
:101E500094E048D340E250E06B2D83EA94E008D44C
:101E60008B2D43DE84FD1BC063E070E08B2D34DEE0
:101E7000811106C0B8D98B2D8BDE80E090E014C0B4
:101E8000B2D996D900E021E040E059E06DE370E07E
:101E9000CE010196E7DD89819A818BD9E1CF60E19E
:101EA0008B2D40DEA0D9C7010F900F900F90DF91CE
:101EB000CF911F910F91FF90EF90DF90CF90BF9047
:101EC0000895AF92BF92CF92DF92EF92FF920F935D
:101ED0001F93CF93DF931F921F92CDB7DEB7182FBA
:101EE0005B016A0100E021E040E059E06DE370E051
:101EF000CE010196B7DD89819A815BD9612F83EA92
:101F000094E06DD27C01009799F463E070E0812F3A
:101F1000E3DD843109F18823F9F021E030E08C31F0
:101F200011F420E030E0EE24FF24E21AF30A14C09A
:101F3000C816D9060CF476011E141F046CF400E0D8
:101F40009701A501612F83EA94E047D340E450E074
:101F5000612F83EA94E08CD346D9C7010F900F908C
:101F6000DF91CF911F910F91FF90EF90DF90CF9075
:101F7000BF90AF9008950F931F93CF93DF9300D03E
:101F80001F92CDB7DEB7182F00E021E040E059E006
:101F90006DE370E0CE01019665DD89819A8109D9F2
:101FA000612F83EA94E01BD28B839C831CD98B81A5
:101FB0009C810F900F900F900F90DF91CF911F9108
:101FC0000F910895EF92FF920F931F93CF93DF939A
:101FD0001F921F92CDB7DEB7182F7B0100E021E0E2
:101FE00040E059E06DE370E0CE0101963BDD898170
:101FF0009A81DFD801E021E030E0A701612F83EA78
:1020000094E0EBD2F0D881E090E00F900F90DF9158
:10201000CF911F910F91FF90EF90089508959F9297
:10202000AF92BF92CF92DF92EF92FF920F931F93E6
:10203000CF93DF931F921F92CDB7DEB7982E6B011F
:102040005A01790100E021E040E059E06DE370E0E1
:10205000CE01019607DD89819A81ABD8692D83EA8B
:1020600094E08DD18E159F0528F4692D83EA94E0C4
:1020700086D17C0187019501A601692D83EA94E050
:10208000C8D1B1D8C7010F900F90DF91CF911F91A8
:102090000F91FF90EF90DF90CF90BF90AF909F9007
:1020A0000895CF92DF92EF92FF920F931F93CF93F9
:1020B000DF931F921F92CDB7DEB7182F7B016A0105
:1020C000FB018081811109C08181811106C082815B
:1020D000811103C083818823C9F0C114D104B1F0F8
:1020E00000E021E040E059E06DE370E0CE010196B0
:1020F000B9DC89819A815DD8B701812FE5DCB60111
:10210000812F14DD70D881E090E002C080E090E083
:102110000F900F90DF91CF911F910F91FF90EF9053
:10212000DF90CF9008950F931F93CF93DF931F926B
:102130001F92CDB7DEB7182F00E021E040E059E054
:102140006DE370E0CE0101968DDC89819A8131D8F2
:1021500040E250E0612F83EA94E08AD2812FC5DC0F
:1021600084FD1AC0812FC1DC83FF07C068E1812F85
:10217000D9DC39D880E090E015C035D819D800E016
:1021800021E040E059E06DE370E0CE0101966ADCA9
:1021900089819A810ED8E2CF60E1812FC3DC23D8F8
:1021A00081E090E00F900F90DF91CF911F910F9100
:1021B00008958EBD00000DB407FEFDCF8EB50895C5
:1021C0002C9808952C9A08951F93CF93DF931F9214
:1021D0001F92CDB7DEB7182F6A839983F1DF80EFA6
:1021E000E8DF9981892FE5DF812FE3DF6A81862F80
:1021F000E0DFE8DF81E00F900F90DF91CF911F913A
:102200000895CF93DF93EC016CE271E080E090E001
:102210000E948F070E944D1D249A8091C704882335
:1022200099F09FB7F8948091C704813059F48DB329
:102230008093C5042DB38091C604809582238DBB05
:102240009FBF02C09093C50480E58CBD1DBC60E8B3
:1022500080E090E0B9DF65E58BE190E0B5DF65E512
:102260008AE190E0B1DF8091C704882361F09FB7D5
:10227000F8942091C7048091C504213019F48DBBD6
:102280009FBF01C08FBF80E090E49983888380E086
:1022900090E69987888780E098E49B838A8380E032
:1022A00098E69B878A8780E090E59D838C8380E019
:1022B00090E79D878C8780E098E59F838E8380E000
:1022C00098E79F878E87DF91CF910895CF92DF9215
:1022D000EF92FF920F931F93CF93DF93EC017A015C
:1022E0008B016C01C40ED51ECC15DD0571F068DFC5
:1022F00080EF5FDF8D2F5DDF8C2F5BDF2196F80194
:1023000081918F0156DF5EDFEFCFC701DF91CF9163
:102310001F910F91FF90EF90DF90CF9008951F9342
:10232000CF93DF931F92CDB7DEB7182F998348DF85
:102330008FE03FDF9981892F3CDF812F3ADF80E0FA
:1023400038DF89833FDF89810F90DF91CF911F9123
:1023500008951F93CF93DF93182F60E270E0BCDBEA
:10236000C82FD0E061E270E0812FB6DBDC2FCC27F4
:102370009E01282BC901DF91CF911F910895FF92F3
:102380000F931F93CF93DF93F62EC0E0D0E08F2DF5
:10239000E0DF8C01009719F08F2DDBDFEC01C01717
:1023A000D107A9F7CE01DF91CF911F910F91FF9037
:1023B00008951F93CF93DF93182F66E270E08CDBB4
:1023C000C82FD0E067E270E0812F86DBDC2FCC27BE
:1023D0009E01282BC901DF91CF911F910895FF9293
:1023E0000F931F93CF93DF93F62EC0E0D0E08F2D95
:1023F000E0DF8C01009719F08F2DDBDFEC01C017B7
:10240000D107A9F7CE01DF91CF911F910F91FF90D6
:1024100008956F927F929F92AF92BF92CF92DF9278
:10242000EF92FF920F931F93CF93DF931F92CDB73D
:10243000DEB7D82E962E3A01590164E270E0892D5C
:1024400099834ADBE82EF12C65E270E0892D44DBAC
:10245000FE2CEE24E82AE60CF71C970137706D2C51
:102460009981792E690C711C690C711CD301ED9155
:10247000FC91E20FF31FC901800F911F813098403A
:1024800098F0C12C48E0D42EC21AD30AA601B50197
:10249000CF011CDFA8014C195D09B5016C0D7D1D34
:1024A000F3018081918103C0A801B501CF010EDF46
:1024B000E00EF11E4F2D64E270E0892D19DB4E2DE8
:1024C00065E270E0892D0F90DF91CF911F910F9100
:1024D000FF90EF90DF90CF90BF90AF909F907F9054
:1024E0006F9006CB0F931F9389019A0140E050E053
:1024F00090DF1F910F910895CF92DF92EF92FF929C
:102500000F931F93CF93DF93EC017A018B016C0142
:10251000C40ED51ECC15DD0579F052DE8FE049DE04
:102520008D2F47DE8C2F45DE219680E042DEF801BC
:1025300081938F0147DEEECFC701DF91CF911F91CD
:102540000F91FF90EF90DF90CF900895AF92BF92E0
:10255000CF92DF92EF92FF920F931F93CF93DF936F
:102560001F921F92CDB7DEB75A8349835901E98183
:10257000FA81F7707C01E60EF11CE60EF11CD70122
:1025800018968D919C9119978E0F9F1F98012E0F71
:102590003F1F2130384090F0C12C68E0D62ECE1A73
:1025A000DF0AA601B501A8DFA8014C195D09B50134
:1025B0006C0D7D1DF7018085918502C0A801B501D4
:1025C0000F900F90DF91CF911F910F91FF90EF909F
:1025D000DF90CF90BF90AF908FCF8F929F92AF92AE
:1025E000BF92CF92DF92EF92FF920F931F93CF9300
:1025F000DF936C01962E5A017901802E68E270E01B
:10260000892D6ADAC82FD0E069E270E0892D64DA9A
:10261000DC2FCC27C82B87019501AE01692DC6019F
:1026200095DF811018C0CE0DDF1D4D2F68E270E0E0
:10263000892D5EDA4C2F69E270E0892DDF91CF9110
:102640001F910F91FF90EF90DF90CF90BF90AF90D0
:102650009F908F904DCADF91CF911F910F91FF9066
:10266000EF90DF90CF90BF90AF909F908F900895A4
:10267000CF93C62F61E070E08C2F3ADA61E070E012
:102680008C2F2ADA8111FACFCF9108950E9624E18A
:10269000FC0111922A95E9F70895CF93DF93EC019D
:1026A000625F7F4F0E94CA04CE01DF91CF910895EF
:1026B000CF93DF93EC016E5E7F4F0E94CA04CE0180
:1026C000DF91CF910895CF93DF93EC016A5E7F4F46
:1026D0000E94CA04CE01DF91CF910895CF93DF937A
:1026E000EC01625E7F4F0E94CA04CE01DF91CF9160
:1026F000089580E3FB0180833296842F82958F704A
:1027000090E1899F401911244A3014F4405D01C0C2
:10271000495C4293882311F0482FEFCF08950F931F
:1027200000E020E040E060E083EB94E00E94BE0423
:102730000F9108956F927F928F929F92AF92BF9266
:10274000CF92DF92EF92FF920F931F93CF93DF937D
:10275000CDB7DEB7AC970FB6F894DEBF0FBECDBFD6
:102760007C01862EB42EA52E20E2922ECE0101965B
:102770006C01FC01292D11922A95E9F70FEF2FEF3B
:102780004FEF6FEF86960E94BE048CEC92E09AA306
:1027900089A389A59AA5ABA5BCA58BA39CA3ADA332
:1027A000BEA38701095B1F4F43E450E0BE016F5D8C
:1027B0007F4FC8010E94C50B019609F4BEC081E09D
:1027C00089838A8386E0782E7B821C82F70164816C
:1027D0007581868197810E94C71D6D837E838F835B
:1027E0009887A986BA8680E890E09C878B874CE121
:1027F00050E0B601C8010E94CF0BF601292D1192BD
:102800002A95E9F7570188E0A80EB11CF501D60119
:1028100001900D927A94E1F740E150E0B601C801D1
:102820000E94CF0BF60111929A94E9F796E0692E77
:10283000712C40E250E0B601C8010E94CF0BF1E0DC
:102840006F1A710861147104A1F783E6898392E815
:102850009A8393E59B838C8385E38D8381E08E83CC
:102860008F829DE3988797E099878A8786E0F501B4
:10287000DE011B9601900D928A95E1F78CE0898B21
:102880008A8B6CEF72E0CE0143960E946220F701C2
:102890004385BE01675E7F4FC7012BDFF70144858B
:1028A000BE01655E7F4FC70124DFF7014585BE018C
:1028B000635E7F4FC7011DDF4EE150E0B601C801E6
:1028C0000E94CF0BF3E08F121EC082E3898384E065
:1028D0008A83F70196859B8397859C8390899D8346
:1028E00091899E8396E39F838887828D8987838DD4
:1028F0008A87848D8B87858D8C874CE050E0B6016C
:10290000C8010E94CF0B87E3898386E08A8391E028
:102910009B8393E09C838D838FE08E838AE38F83F8
:102920008BE388878FEF898749E050E0B601C801C3
:102930000E94CF0BC8010E94CC0BAC960FB6F89446
:10294000DEBF0FBECDBFDF91CF911F910F91FF90E2
:10295000EF90DF90CF90BF90AF909F908F907F903F
:102960006F9008952F923F924F925F926F927F9255
:102970008F929F92AF92BF92CF92DF92EF92FF928F
:102980000F931F93CF93DF93CDB7DEB7E3970FB6C7
:10299000F894DEBF0FBECDBF7C012A013B01690167
:1029A0000E9460074B015C018701095B1F4FC80152
:1029B0000E94690C1816190694F00E9460076819A5
:1029C00079098A099B094616570668067906F0F0C8
:1029D00062E370E080E090E00E948F07E8CF42E27F
:1029E00050E0BE016F5F7F4FC8010E940A0C8981D1
:1029F000823031F4F801858996898334910541F05C
:102A000019A6C8010E949F0B89A565C18FEF63C1FC
:102A10006D817E818F8198850E94C71D4B015C016D
:102A2000F601608371838283938346E050E0B701AF
:102A3000685F7F4FCE014D960E944C20892B99F400
:102A4000F70180819181A281B38188169906AA0637
:102A5000BB0648F084819581A681B78188159905C8
:102A6000AA05BB0528F4C8010E949F0B80E033C172
:102A700089899A89AB89BC89F70186879787A08B5A
:102A8000B18B3EECC32ED12CC8010E94E20BF1E0C9
:102A9000CF1AD108C114D104B9F719A6C70182967B
:102AA0009BA78AA7F701B696FDA7ECA708969FA754
:102AB0008EA73C976F018E9699AB88AB3897FBAB8E
:102AC000EAAB5701F6E1AF0EB11C47018EE1880E6B
:102AD000911CC8010E94850B181619060CF091CFA5
:102AE000C8010E94E20B8333910509F4CBC0F4F4D2
:102AF00081309105B9F11CF4892B59F3DCC0833086
:102B00009105C1F1069709F0D6C0C8010E94E20BF9
:102B10003C0144E050E0B401C8010E940A0C212CA1
:102B2000312C7724F4E06F1A71083FC08A33910585
:102B300009F47EC03CF48533910561F0C69709F431
:102B40003FC0B9C08B33910509F487C08F3F910511
:102B500001F2B1C0C8010E94E20BC8010E94E20B61
:102B600089A7B7CFC8010E94E20B44E050E06AA9F0
:102B70007BA93AC0C8010E94E20B3C0144E050E04E
:102B8000B501C8010E940A0C212C312C772494E055
:102B9000691A7108261437040CF09BCFC8010E94F3
:102BA000E20BEFEF2E1A3E0AF5CF261437040CF095
:102BB00090CFC8010E94E20B8FEF281A380AF5CF98
:102BC000C8010E94E20B782EF701828D811110C09E
:102BD000838D81110DC0848D81110AC0858D811175
:102BE00007C044E050E0B601C8010E940A0C71CF52
:102BF000E8A9F9A92080318042805380B601CE0136
:102C000083960E94CA048DA19EA1AFA1B8A582158A
:102C10009305A405B50529F3212C312C721409F470
:102C200058CFC8010E94E20BFFEF2F1A3F0AF6CFE0
:102C3000C8010E94E20B44E050E06CA57DA5C801EC
:102C40000E940A0CF70166A177A180A591A59FD7E4
:102C500066A377A380A791A73CCFC8010E94E20B8F
:102C600044E050E06EA57FA5C8010E940A0CF70160
:102C700062A573A584A595A58AD762A773A784A723
:102C800095A727CFC8010E94E20B44E050E06AA557
:102C90007BA5C8010E940A0CF70162A173A184A15F
:102CA00095A175D762A373A384A395A366A777A7FD
:102CB00080AB91AB0ECFC8010E94E20B382E612C85
:102CC000712C361409F405CFC8010E94E20BFFEF06
:102CD0006F1A7F0AF6CFE3960FB6F894DEBF0FBEE9
:102CE000CDBFDF91CF911F910F91FF90EF90DF90BB
:102CF000CF90BF90AF909F908F907F906F905F909C
:102D00004F903F902F9008952F923F924F925F9255
:102D10006F927F928F929F92AF92BF92CF92DF92EB
:102D2000EF92FF920F931F93CF93DF93CDB7DEB750
:102D300027970FB6F894DEBF0FBECDBF8C0120EDF4
:102D400037E040E050E061E070E080E090E08AD65B
:102D5000D80114966D937D938D939C931797F801EA
:102D600060837183828393834801F7E48F0E911C03
:102D7000C4010E94B10B64E470E0C4010E943E0CE7
:102D8000882309F420C10E9460076B017C01A12CFB
:102D9000B12C1D82180186E4280E311CD801DE9664
:102DA000BF83AE8338EE432E33E0532E612C712C5B
:102DB000F1018081833009F4F5C081111DC0F80153
:102DC00084819581A681B7810196A11DB11D84835F
:102DD0009583A683B7830E9460076C197D098E09CD
:102DE0009F09A30192018FD6A90161E0C801A2DC6D
:102DF00081E0D1018C93B8C08430E9F4F80184817A
:102E00009581A681B7810196A11DB11D848395830B
:102E1000A683B7830E9460076C197D098E099F09FC
:102E2000A301920170D6A90163E0C80183DCE2E04E
:102E3000D101EC9399C0813049F5AE81BF814D91AC
:102E40005D916D917C919E012F5F3F4FC8018ADD9E
:102E50008D83823009F088C089819A81AB81BC81E1
:102E6000F80184839583A683B7830E9460076C1959
:102E70007D098E099F09A301920145D6A90163E04E
:102E8000C80158DCED81D101EC9374C0823009F0A7
:102E90006BC0AE81BF814D915D916D917C919E0122
:102EA0002F5F3F4FC8015EDD8D83853009F056C02E
:102EB00083E0F1018083F80182A193A1A4A1B5A1CF
:102EC000892B8A2B8B2B41F484E893E0A0E0B0E0BF
:102ED00082A393A3A4A3B5A3F80186A197A1A0A55B
:102EE000B1A5892B8A2B8B2B61F482A193A1A4A17C
:102EF000B5A1B695A7959795879586A397A3A0A703
:102F0000B1A7D8019A964D915D916D917C919D9755
:102F100096968D919D910D90BC91A02D452B462BA1
:102F2000472B59F4AC01BD01440F551F661F771F95
:102F3000F80142A753A764A775A7F80186A797A72A
:102F4000A0ABB1AB82A593A5A4A5B5A582AB93AB6D
:102F5000A4ABB5ABAA24A394B12C0CC0FD81F63070
:102F600019F4D1011C9206C0BD81BF3F19F4F101D3
:102F700010821D82F1E0AF16B10409F419CF0E944E
:102F800060076C197D098E099F09D801DA962D9189
:102F90003D914D915C91DD972617370748075907FA
:102FA00008F006CFC4010E94B10BF801848195811D
:102FB000A681B7810196A11DB11D84839583A68347
:102FC000B783C50102C080E090E027960FB6F89461
:102FD000DEBF0FBECDBFDF91CF911F910F91FF904C
:102FE000EF90DF90CF90BF90AF909F908F907F90A9
:102FF0006F905F904F903F902F900895CF92DF9207
:10300000EF92FF920F931F93CF93DF93EC016B012D
:103010001AA21BA21CA21DA21EA21FA218A619A6BC
:103020001AA61BA61CA61DA61EAA1FAA18AE19AE7C
:103030002AAF3BAF4CAF5DAFFC01FE96E082F18260
:10304000028313838C01085F1F4F86E0F801119201
:103050008A95E9F7CE011ADB86E0F601D8010190E6
:103060000D928A95E1F7FE01EA5BFF4F1082CE01D7
:10307000DF91CF911F910F91FF90EF90DF90CF9054
:1030800043CEFB014281538164817581FC014283FF
:10309000538364837583178216820895CF93FB014F
:1030A00081918111FDCFFB0180E090E020E030E0D4
:1030B000CAE06191662309F12430310564F56E326E
:1030C00071F48F3F910509F034F5DA01A20FB31FB7
:1030D00012968C932F5F3F4F80E090E0EACFDC01A7
:1030E000CA9FC001CB9F900D1124772767FD709573
:1030F00060537109860F971FDCCF8F3F910509F050
:1031000054F4243031053CF4FA01E20FF31F8283BA
:1031100081E090E002C080E090E0CF9108950F93AD
:1031200000E020E040E060E089EB94E00E94BE0413
:103130000F910895AF92BF92CF92DF92EF92FF92DC
:103140000F931F93CF93DF9300D0CDB7DEB76C0101
:103150007B010E946007F601778366838601085F22
:103160001F4FB6016A5F7F4F42E050E0C8010E94E6
:10317000CF0B81E090E09A83898342E050E0BE016A
:103180006F5F7F4FC8010E94CF0B80E091E09A8370
:10319000898342E050E0BE016F5F7F4FC8010E940B
:1031A000CF0B1A82198242E050E0BE016F5F7F4F61
:1031B000C8010E94CF0B42E050E0BE016F5F7F4F1D
:1031C000C8010E94CF0B42E050E0BE016F5F7F4F0D
:1031D000C8010E94CF0B6701F6018081882311F19D
:1031E000F7016F018191811115C05601AE18BF081A
:1031F0001A141B0494F4AB8241E050E0BE016D5FF1
:103200007F4FC8010E94CF0BA501B701C8010E94E2
:10321000CF0B03C08E3229F7E8CF7601FFEFEF1A0C
:10322000FF0ADACF1B8241E050E0BE016D5F7F4FA5
:10323000C8010E94CF0BE12CFF24F394FA82E982AB
:1032400042E050E0BE016F5F7F4FC8010E94CF0B8C
:10325000FA82E98242E050E0BE016F5F7F4FC80111
:103260000E94CF0B81E090E00F900F900F90DF91C4
:10327000CF911F910F91FF90EF90DF90CF90BF9073
:10328000AF9008954F925F926F927F928F929F922C
:10329000AF92BF92CF92DF92EF92FF920F931F9364
:1032A000CF93DF93CDB7DEB763970FB6F894DEBF49
:1032B0000FBECDBF7C015B016A010E9460072B013C
:1032C0003C018701085F1F4F4501A12CB12CC801AB
:1032D0000E94690C1816190694F00E946007641980
:1032E00075098609970986169706A806B906D0F0CB
:1032F00062E370E080E090E00E948F07E8CFF70182
:103300004281538164817581818D928DA38DB48DAD
:10331000481759076A077B0741F4858D968DC59735
:1033200021F406C08FEF9FEFF9C08EEF9FEFF6C03C
:10333000C8010E94850B0C970CF4EEC04CE050E0E5
:10334000BE016F5F7F4FC8010E940A0C8B819C8178
:103350009827892798279A8B898BF701468157816F
:1033600029813A814217530711F497FD06C0C8011D
:103370000E949F0B8CEF9FEFD1C08F709270892BB2
:1033800031F0C8010E949F0B8BEF9FEFC7C0AF8049
:10339000B884BA24AB24BA24A114B10419F0E12CE6
:1033A000F12C23C0C8010E949F0B8AEF9FEFB6C08B
:1033B00041E050E0BE01635F7F4FC8010E940A0CEC
:1033C0008D8581111BC08D858111F2CFC8010E94AE
:1033D000E20BC8010E94E20BC8010E94E20BC80187
:1033E0000E94E20BFFEFEF1AFF0A8D819E81982762
:1033F00089279827E816F906D8F20AC08D859FEF2D
:10340000980F9D878823F9F2C8010E94E20BF6CF3E
:10341000E12CF12C41E050E0BE016D5E7F4FC80110
:103420000E940A0C8B89982F907C61F4882371F09C
:103430008B899FEF980F9B8B882341F0C8010E94D6
:10344000E20BF6CFC8010E94E20B1B8A8B89811127
:10345000E1CF42E050E0BE01615F7F4FC8010E94B2
:103460000A0C42E050E0BE01635F7F4FC8010E943A
:103470000A0CC8010E94E20BC8010E94E20BC801BD
:103480000E94E20BC8010E94E20B42E050E0BE0144
:103490006F5E7F4FC8010E940A0C8F859889811545
:1034A000914029F48D859E858115914019F0812CDC
:1034B000912C16C089899A898115944031F0C801F0
:1034C0000E949F0B87EF9FEF29C0B6016E5F7F4F71
:1034D00044E050E0C8010E940A0C81E090E01EC068
:1034E00089899A899827892798278816990638F410
:1034F000C8010E94E20B2FEF821A920AF1CF8FEFE0
:10350000E81AF80AEA14FB0409F084CFC8010E9403
:103510009F0B86EF9FEF02C08DEF9FEF63960FB674
:10352000F894DEBF0FBECDBFDF91CF911F910F91F9
:10353000FF90EF90DF90CF90BF90AF909F908F90D3
:103540007F906F905F904F9008958F929F92AF926F
:10355000BF92CF92DF92EF92FF920F931F93CF9380
:10356000DF9300D000D0CDB7DEB78C015B016A01DC
:1035700095DD4C01009709F05DC0F801428153814F
:10358000648175818091BB049091BC04A091BD04BD
:10359000B091BE04481759076A077B0709F44EC06B
:1035A0000E9460077801F8E0EF0EF11C6F7077273A
:1035B0007C5FC7010E943E0C813009F043C08CEC57
:1035C00092E09A838983F80182819381A481B581F5
:1035D0008B839C83AD83BE8345E350E0BE016F5F68
:1035E0007F4FC7010E94C50B892B19F4812C912CA8
:1035F0001DC0B501C8019EDD892BC1F3C7010E9422
:10360000CC0B892B99F333E0A32EB12CA60168E8EB
:1036100073E1C80137DE4C01F1E0AF1AB108A11423
:10362000B10421F08F3F2FEF920781F3C7010E9471
:10363000B10B08C088248394912C04C09EEF892E7E
:1036400099249A94C40126960FB6F894DEBF0FBE53
:10365000CDBFDF91CF911F910F91FF90EF90DF9041
:10366000CF90BF90AF909F908F90089581E0862774
:103670000895862F0895DC01ED91FC91048CF58D61
:10368000E02D199591E089270895CF93DF931F923C
:10369000CDB7DEB76983DC01ED91FC910280F38147
:1036A000E02D41E050E0BE016F5F7F4F19950F9014
:1036B000DF91CF91089521E0FC018485843009F4E5
:1036C00020E0822F0895FC019485FB0184859813E6
:1036D00003C081E0943009F480E008950F931F93B4
:1036E000CF93DF93EC018A018C85843021F00E9416
:1036F000DF0E892B39F481E090E09B838A8380E0A0
:1037000090E001C0C801DF91CF911F910F91089502
:10371000FC018485843011F00C94BB0F80E090E0B4
:103720000895CF93DF931F92CDB7DEB741E050E00D
:10373000BE016F5F7F4FFC0184850E94610F1816E8
:1037400019061CF4898190E002C08FEF9FEF0F9063
:10375000DF91CF910895FC0184850C94610F0F9344
:103760001F93CF93DF931F92CDB7DEB78C01DC019F
:10377000ED91FC910480F581E02D1995892B51F094
:10378000BE016F5F7F4FF80184850E94E20F89813F
:1037900090E002C08FEF9FEF0F90DF91CF911F91CC
:1037A0000F910895FC0184850C940E10CF92DF9246
:1037B000EF92FF920F931F93CF93DF93CDB7DEB7B6
:1037C000AF970FB6F894DEBF0FBECDBF7C018B0163
:1037D0006A01CE0101960E94B404CE0109960E94AE
:1037E000B60CCE018A960E94B40467E774E0CE015D
:1037F00084960E94BD09BE016C5D7F4FCE0101968B
:1038000040DCAE01465D5F4FB801CE0101969DDE02
:1038100081309105C1F4D701ED91FC910484F585C7
:10382000E02D8CEC92E09DA38CA30CA51DA52EA5EC
:103830003FA50EA31FA328A739A7A601BE016C5D53
:103840007F4FC7011995AF960FB6F894DEBF0FBE34
:10385000CDBFDF91CF911F910F91FF90EF90DF903F
:10386000CF900895FC01262F1382128248EE53E078
:1038700060E070E0448355836683778387E093E05C
:103880009183808324870895FC018485843011F01E
:103890000C94A50D80E00895DF92EF92FF920F93B4
:1038A0001F93CF93DF93EC017B018A018C858430D9
:1038B00009F045C0D12C8D2D0E94A50D811102C0AB
:1038C000DC8607C08B7F8831D9F3D39484E0D8128B
:1038D000F2CF8C85843099F1209110023091110241
:1038E0002F5F3F4F2115310511F420E030EC30936C
:1038F000110220931002409110025091110220E019
:1039000061E00E94EE0DB7016E5F7F4FA8018C85CC
:103910000E94690E811103C084E08C8710C0CE0123
:10392000B3DF873149F061E070E080E090E00E9411
:103930008F07CE01A9DFEECF81E090E002C080E0EA
:1039400090E0DF91CF911F910F91FF90EF90DF906A
:103950000895CF92DF92EF92FF92CF93DF93EC0125
:103960008C85843041F10E94BC0E0E9460076B017F
:103970007C01CE0189DF8823A1F061E070E080E066
:1039800090E00E948F070E9460076C197D098E09E4
:103990009F09683E73408105910558F38C850E940C
:1039A000C80DEC85F0E0EE0FFF1FE957FB4F1182C9
:1039B000108284E08C87DF91CF91FF90EF90DF90B1
:1039C000CF900895CF93DF93EC018C858430C9F0BC
:1039D000CE015ADF8431A9F0882399F0883189F02B
:1039E0008C3169F4E881F9810480F581E02DCE0104
:1039F000199521E0892B09F420E0822F03C081E092
:103A000001C080E0DF91CF9108950F9300E020E0A6
:103A100040E060E08FEB94E00E94BE040F910895B7
:103A2000CF93DF9300D01F92CDB7DEB79B01AC01DF
:103A3000611571058105910559F069833A834B83BE
:103A40005C833AD229813A814B815C817ED003C06C
:103A500060E070E0CB010F900F900F900F90DF911E
:103A6000CF910895CF92DF92EF92FF926B017C018C
:103A700062177307840795075CF4CA01B9016C19D2
:103A80007D098E099F09CCDF6C0D7D1D8E1D9F1D4C
:103A9000FF90EF90DF90CF900895CF93CFB7F89439
:103AA0008091C804811127C0E9ECF1E08491E3E83A
:103AB000F1E09491E82FF0E0EE0FFF1FEC50FE4F85
:103AC000A591B4918C91892321F461E085E30E9452
:103AD000A30861E085E30E946A088CB580618CBD13
:103AE0008CB580648CBD61E084E30E946A0861E06B
:103AF00083E30E946A088091C8048F5F8093C804A2
:103B0000CFBFCF910895A1E21A2EAA1BBB1BFD01C6
:103B10000DC0AA1FBB1FEE1FFF1FA217B307E407AC
:103B2000F50720F0A21BB30BE40BF50B661F771F04
:103B3000881F991F1A9469F76095709580959095E4
:103B40009B01AC01BD01CF010895052E97FB16F432
:103B500000940FD057FD05D0D6DF07FC02D046F405
:103B600008C050954095309521953F4F4F4F5F4F7E
:103B7000089590958095709561957F4F8F4F9F4FD9
:103B80000895EE0FFF1F0590F491E02D1994692719
:103B90009627692778278727782708950DD0A59F2E
:103BA000900DB49F900DA49F800D911D1124089538
:103BB0000790F691E02D1994A29FB001B39FC00128
:103BC000A39F700D811D1124911DB29F700D811D49
:103BD0001124911D0895CF93DF938230910510F445
:103BE00082E090E0E091CB04F091CC0420E030E062
:103BF000A0E0B0E0309739F1408151814817590772
:103C0000B8F04817590771F482819381109729F011
:103C100013969C938E9312972CC09093CC04809310
:103C2000CB0427C02115310531F04217530718F096
:103C3000A901DB0101C0EF019A01BD01DF01028092
:103C4000F381E02DD7CF21153105F9F0281B390B71
:103C50002430310580F48A819B816115710521F042
:103C6000FB019383828304C09093CC048093CB04A4
:103C7000FE01329644C0FE01E20FF31F819391933F
:103C800022503109398328833AC02091C9043091E8
:103C9000CA04232B41F42091020230910302309395
:103CA000CA042093C9042091000230910102211519
:103CB000310541F42DB73EB7409104025091050201
:103CC000241B350BE091C904F091CA04E217F307F5
:103CD000A0F42E1B3F0B2817390778F0AC014E5F7C
:103CE0005F4F2417350748F04E0F5F1F5093CA04EB
:103CF0004093C9048193919302C0E0E0F0E0CF01CA
:103D0000DF91CF910895CF93DF93009709F487C097
:103D1000FC01329713821282C091CB04D091CC0463
:103D2000209781F420813181280F391F8091C904A7
:103D30009091CA048217930779F5F093CA04E0932F
:103D4000C9046DC0DE0120E030E0AE17BF0750F4BB
:103D500012964D915C9113979D014115510509F102
:103D6000DA01F3CFB383A28340815181840F951F81
:103D70008A179B0771F48D919C911197840F951F61
:103D800002969183808312968D919C9113979383D1
:103D900082832115310529F4F093CC04E093CB0400
:103DA0003EC0D9011396FC93EE9312974D915D910D
:103DB000A40FB51FEA17FB0779F480819181840F66
:103DC000951F0296D90111969C938E9382819381BF
:103DD00013969C938E931297E0E0F0E08A819B818A
:103DE000009719F0FE01EC01F9CFCE01029628816F
:103DF0003981820F931F2091C9043091CA0428177A
:103E0000390769F4309729F41092CC041092CB044E
:103E100002C013821282D093CA04C093C904DF91F6
:103E2000CF9108958F929F92AF92BF92CF92DF92DF
:103E3000EF92FF92CF93DF93EC01688179818A81C1
:103E40009B81611571058105910521F464E279ED8D
:103E50008BE597E02DE133EF41E050E076DE49015C
:103E60005A019B01AC01A7EAB1E498DE6B017C0129
:103E7000ACEEB4EFA50194012ED1C60ED71EE81EFC
:103E8000F91EF7FE06C081E0C81AD108E10880E8F3
:103E9000F80AC882D982EA82FB82C701B6019F77FD
:103EA000DF91CF91FF90EF90DF90CF90BF90AF90D8
:103EB0009F908F900895B6CF86E092E0B3CF609345
:103EC00006027093070280930802909309020895F6
:103ED0006F927F928F929F92AF92BF92CF92DF921A
:103EE000EF92FF920F931F93CF93DF93EC01CB01DF
:103EF000209779F4DF91CF911F910F91FF90EF9070
:103F0000DF90CF90BF90AF909F908F907F906F90F9
:103F100062CEFE01E60FF71F9E0122503109E21723
:103F2000F30708F4A8C0D9010D911C911197061749
:103F30001707B0F00530110508F49BC0A8014450E4
:103F400051094617570708F494C002501109061B7F
:103F5000170B019311936D937C93CF01D4DE89C02D
:103F60005B01A01AB10A4E01800E911EA091CB04F4
:103F7000B091CC04612C712C60E070E0109709F4D2
:103F800049C0A815B905C9F5ED90FC9011976701D6
:103F900042E0C40ED11CCA14DB0478F147018A1830
:103FA0009B08640142E0C40ED11C1296BC9012978B
:103FB0001396AC91B5E0CB16D10440F0B282A38346
:103FC00091828082D9018D939C9309C00E5F1F4F0F
:103FD0000E0D1F1DF90111830083EB2DFA2F6115C2
:103FE000710531F0DB011396FC93EE93129741C0FB
:103FF000F093CC04E093CB043CC06D917C9111977D
:104000006616770608F43B01BD0112960D90BC912F
:10401000A02DB4CF6091C9047091CA0468157905C8
:10402000E9F468167906D0F440910002509101023B
:104030004115510541F44DB75EB76091040270918E
:104040000502461B570BE417F507A8F4F093CA04C2
:10405000E093C904F901918380830BC0BCDD7C012E
:10406000009749F0A801BE0124D0CE014CDEC70163
:1040700004C0CE0102C080E090E0DF91CF911F919B
:104080000F91FF90EF90DF90CF90BF90AF909F90F7
:104090008F907F906F900895FB01DC0104C08D919B
:1040A0000190801921F441505040C8F7881B990BAA
:1040B0000895FB01DC0102C001900D924150504077
:1040C000D8F70895FB01DC0101900D920020E1F783
:1040D0000895B7FF63CD62DD821B930B0895F894BA
:0240E000FFCF10
:1040E2000000CD04200001000000DEADBEFFFF0194
:1040F20000C05374617274696E672E2E2E00417473
:1041020074656D7074696E6720746F206F6274617C
:10411200696E204448435020616464726573732E53
:10412200004661696C656420746F20616371756912
:104132007265204448435020616464726573732C35
:1041420020747279696E6720616761696E20696E99
:104152002035207365636F6E64732E004163717541
:1041620069726564204448435020616464726573D7
:10417200733A200052656164792E0A007564707C7E
:10418200726563767C206E62797465733A20002CC6
:1041920020646174613A2000000000000C03F40402
:1041A20061027A026C02EB02000000007D04000052
:1041B2000000D9099D0AEF0900000000890BCF0B0E
:1041C200850BE20B260C9F0B3E0CB10BC50BCB0CE7
:1041D200CC0B690C0A0C6A0B710B810B57495A6E96
:1041E20065740000000000451B6E1B881B911BAF0D
:1041F2001BD21B4C1CD61BAB1BA91CE21C5B1B3627
:084202001B391B631B3B1B0071
:00000001FF
