:1000000013C1000042C1000040C100003EC1000019
:100010003CC100003AC1000038C1000036C10000F8
:1000200034C1000032C1000030C100002EC1000008
:100030002CC100002AC1000028C1000026C1000018
:1000400024C1000022C1000020C100001EC1000028
:100050001CC100001AC1000018C100000C942A0B3A
:1000600014C100000C9461080C9497080EC10000A4
:100070000CC100000AC1000008C1000006C1000058
:1000800004C1000002C1000000C10000FEC0000069
:10009000FCC00000FAC00000F8C00000F6C000007C
:1000A000F4C00000F2C00000F0C00000EEC000008C
:1000B000ECC00000EAC00000E8C00000E6C000009C
:1000C000E4C00000E2C00000E0C00000DEC00000AC
:1000D000DCC00000DAC00000D8C00000D6C00000BC
:1000E000D4C00000430C460C350C390C3F0C7D0C81
:1000F0004A0C4E0C540C580C5C0C620C660C6A0CCE
:100100007D0C700C740C780C00000A0B02090C0DAD
:100110000E080703040100000000000000000000BA
:1001200000000000000000000000000000000000CF
:10013000000000001211100000000000000000008C
:1001400000000000000000000000000000000102AC
:1001500010202008081020401020408002010201D9
:100160000804020101020408102040808040201091
:1001700008040201800402018040201008040201EA
:100180000804020101020408102040800102040852
:10019000102040800505050507050808080802022B
:1001A00002020A0A08080404040401010101010111
:1001B00001010303030303030303040707070C0CF4
:1001C0000C0C0C0C0C0C02020202060606060606BB
:1001D00006060B0B0B0B0B0B0B0B00002200250074
:1001E00028002B002E003100340002010000050120
:1001F00008010B0100002100240027002A002D0027
:100200003000330001010000040107010A018F01E1
:100210009901E4047E05EC057406C9087409B50E5D
:10022000C90FA4135719CC0111241FBECFEFD1E27F
:10023000DEBFCDBF00E00CBF14E0A0E0B2E0E2E022
:10024000FDE300E00BBF02C007900D92AE30B10796
:10025000D9F725E0AEE0B4E001C01D92AA37B2079D
:10026000E1F712E0C6E2D2E000E006C02297010901
:10027000FE010BBF0E94C61CCE30D10780E00807EC
:10028000A9F70E941A0B0C94701EBACE27ED32E02B
:10029000FC0131832083B8C00F931F93CF93DF936A
:1002A00000D000D0CDB7DEB78B0160E172E087E708
:1002B00094E00E94DB09D801ED91FC910190F0815E
:1002C000E02DC8011995BC01CE010196EFD1D801EE
:1002D000ED91FC910280F381E02DBE016F5F7F4FB5
:1002E000C8011995CE010196D1DF26960FB6F89474
:1002F000DEBF0FBECDBFDF91CF911F910F9108954B
:10030000CF93DF93EC01C2DFCE01DF91CF910C944C
:10031000280B2AE232E0FC013183208308950F93F9
:1003200000E020E040E060E08EE094E0B6D70F917E
:1003300008950F93CF93DF9300E020E040E060E06A
:1003400089E594E0AAD782EF92E0909351048093DC
:100350005004C2E5D4E01982188288E090E09093BE
:10036000550480935404109257041092560480E16F
:1003700090E00E94260B998388836AE072E08EE405
:1003800094E0C6D340E554E06AE972E084E194E089
:10039000DF91CF910F9192C482EF92E0909351043C
:1003A0008093500480915204909153040C94280B34
:1003B000CF93DF9326E040E052EC61E070E087E706
:1003C00094E01DD66CE272E087E794E0F4D782E017
:1003D00090E00E94260BEC019CDFBE0180E594E0DA
:1003E0002BD38EE494E098D384E194E087D468E33F
:1003F00072E087E794E0DF91CF91DDC784E194E07C
:1004000092D48EE494E0E4C323EB32E0FC01318328
:1004100020830895DB01ED91FC911197BC016E5F83
:100420007F4F0280F381E02D44E050E0CD0119942C
:10043000F1CF23EB32E0FC013183208308959B014F
:10044000411108C0BC016E5F7F4F44E050E0C9011C
:100450000C94F70A089523EB32E0FC0131832083EA
:100460000C94280B23EB32E0FC01318320830C94A5
:10047000280BAF92BF92CF92DF92EF92FF920F9331
:100480001F93CF93DF931F921F92CDB7DEB78C01DE
:100490006B01D5DFD8011A968D919C911B97892B02
:1004A00069F11B961C921E921A9728C042E050E0F8
:1004B000BE016F5F7F4FC6010E94F70AF801828577
:1004C00093857C01FFEFEF1AFF0A8E159F0508F058
:1004D00068C0D80118964D915C9119974E155F052B
:1004E000C0F0F801828593859C01220F331F8E1581
:1004F0009F0508F445C0F801F386E286D601ED9128
:10050000FC910480F581E02DC6011995029770F6E3
:1005100052C009964817590720F71696AC901697BF
:100520001796BC90179719969C938E931897880FDF
:10053000991F0E94260BF80197838683C50120E04E
:1005400030E0D8011A964D915C911B97241735071E
:1005500098F4F801A681B781A901440F551FA40F93
:10056000B51F109729F0FC01408151814D935C9398
:100570002F5F3F4F0296E5CFC5010E94280BB1CFF8
:10058000D8011696ED91FC911797E20FF31F309763
:1005900021F049815A815183408301962E5F3F4F5C
:1005A000A6CFE816F90608F0A9CFD8011B96FC9251
:1005B000EE921A97A3CF0F900F90DF91CF911F91DA
:1005C0000F91FF90EF90DF90CF90BF90AF90089584
:1005D000CF93DF93EC018BEC92E0998388838E813B
:1005E0009F810E94280B83EB92E099838883DF919F
:1005F000CF910895CF93DF93EC01EADFCE01DF9135
:10060000CF910C94280BCF93DF93EC018FEB92E00A
:10061000998388838E819F810E94280B83EB92E0CF
:1006200099838883DF91CF910895CF93DF93EC0175
:10063000EADFCE01DF91CF910C94280BCB0100971C
:1006400039F0DB01ED91FC910280F381E02D1994EA
:100650000895CB01DB01ED91FC910680F781E02D3F
:10066000BA011994CF93DF93EC0183EB92E0998365
:100670008883FB0140815181628173814A835B835E
:100680006C837D838BEC92E0998388831F821E822A
:1006900088E090E0998788871B861A8680E190E041
:1006A000D5D79F838E83DF91CF910895FC0183EB93
:1006B00092E091838083DB0112964D915D916D9163
:1006C0007C911597428353836483758387ED92E011
:1006D0009183808380E885830895CF92DF92EF92A3
:1006E000FF920F931F93CF93DF93EC018B017A015D
:1006F0008C819D818617970708F047C08A819B816E
:100700008617970758F59B01285F3F4F821793077D
:1007100028F5C880D9803B832A83C901880F991F97
:1007200095D799838883F60120E030E04C815D8184
:100730002417350788F4A881B981A901440F551FF2
:10074000A40FB51F109721F0408151814D935C9308
:100750002F5F3F4F3296EACFC6017AD78C819D81B9
:100760009C01220F331F8017910790F4E881F981D3
:10077000E20FF31F309729F0D7014D915C9151831F
:10078000408301962E5F3F4FEECF6817790710F434
:100790001D830C83DF91CF911F910F91FF90EF90FC
:1007A000DF90CF900895CF92DF92EF92FF920F9358
:1007B0001F93CF93DF931F921F92CDB7DEB78C01AB
:1007C0007B013DDE680186E0C80ED11CD8011A9677
:1007D0008D919C911B97892B21F01B961C921E9248
:1007E0001A97D701ED91FC910480F581E02DC701A6
:1007F0001995029790F042E050E0BE016F5F7F4F85
:10080000C701F5D6F801628573856F5F7F4FAE0132
:100810004F5F5F4FC60161DFE4CF0F900F90DF9114
:10082000CF911F910F91FF90EF90DF90CF9008959F
:100830000F931F93CF93DF931F921F92CDB7DEB715
:100840008C0183EB92E0F80191838083FB0140816E
:10085000518162817381F80142835383648375837C
:100860008FEB92E09183808319821A82178216821D
:100870001386128689E090E09187808782E190E07C
:10088000E5D6F80197838683AE014F5F5F4F61E045
:1008900070E0C801069621DF0F900F90DF91CF9195
:1008A0001F910F910895EF92FF920F931F93CF9393
:1008B000DF9300D01F92CDB7DEB77B01DB01ED9156
:1008C000FC910480F581E02DCB0119958C018430D9
:1008D000910558F044E050E0BE016F5F7F4FC701C3
:1008E00086D68C018430910588F460E472E087E755
:1008F00094E047D54AE050E0B80187E794E032D66B
:1009000087E794E046D580E090E053C0898181304C
:1009100071F068E572E087E794E033D54AE050E093
:10092000698187E794E018D687E794E032D58C8117
:10093000813081F08A31E1F465E872E087E794E084
:100940003AD58DE090E082D68C01BE016F5F7F4F7B
:1009500089DE24C06AE772E087E794E02CD58DE059
:1009600090E074D68C01BE016F5F7F4F61DF16C0CF
:1009700066E972E087E794E01ED586E090E066D6EF
:100980008C0149815A816B817C81FC0142835383B4
:100990006483758387EA92E091838083D801ED9127
:1009A000FC910480F581E02D41E0B701C801199563
:1009B000C8010F900F900F900F90DF91CF911F9172
:1009C0000F91FF90EF9008950F9300E020E040E03A
:1009D00060E08FE594E061D40F910895EF92FF926B
:1009E0000F931F93CF93DF93EC017B016FED72E0C8
:1009F00087E794E0E0D40A811B812E813F81220F9A
:100A0000331F8A819B81820F931F0817190769F092
:100A1000D8018D919D918D01DC01ED91FC910190AA
:100A2000F081E02DB7011995E8CFDF91CF911F91AB
:100A30000F91FF90EF900895CF92DF92EF92FF9287
:100A40000F931F93CF93DF93EC017B018E819F81E6
:100A50008C010F5F1F4F8017910708F041C04C8138
:100A60005D814017510740F509964817590720F551
:100A7000CA80DB809D838C83880F991FE7D59B8379
:100A80008A834E815F81F60120E030E0241735072C
:100A900089F0AA81BB81B901660F771FA60FB71F26
:100AA000109721F0608171816D937C932F5F3F4F90
:100AB0003296ECCFC601CCD58E819F819C01220F4E
:100AC000331F8017910778F4EA81FB81E20FF31F4F
:100AD000309711F0F182E08201962E5F3F4FF1CF07
:100AE0000817190710F41F830E83DF91CF911F9110
:100AF0000F91FF90EF90DF90CF9008950F9300E05B
:100B000020E040E060E085E694E0C7D30F910895CF
:100B1000FC01718360830895EF92FF920F931F93FE
:100B2000CF93DF9300D000D0CDB7DEB78C0161E06A
:100B300084E0E4D661E084E01AD764EF72E087E7EE
:100B400094E039D4F8016081718189E295E00E94D6
:100B5000D10E019759F067E173E087E794E02BD459
:100B600068E873E180E090E0EED5E7CF62E573E0FE
:100B700087E794E006D48E010D5F1F4F7E01F7E0FA
:100B8000EF0EF11C69E275E0CE0101960E94A90FFB
:100B9000F80161918F014AE050E087E794E0DCD4EE
:100BA00066E372E087E794E0ECD30E151F0551F77A
:100BB00087E794E0EED326960FB6F894DEBF0FBE1B
:100BC000CDBFDF91CF911F910F91FF90EF900895CE
:100BD00089E295E00C94540F0F9300E020E040E090
:100BE00060E08BE694E059D30F910895FC01828177
:100BF00093810895AF92BF92CF92DF92EF92FF92CE
:100C00000F931F93CF93DF9300D000D0CDB7DEB703
:100C10008C016B016AE673E087E794E0CCD3D801DE
:100C200016968D919C911797FC01A081B1815096E9
:100C3000ED90FC9051975E96ED91FC915F97199520
:100C40005C01D80116966D917C911797DB01ED91AF
:100C5000FC91048CF58DE02DCE0101961995A5012E
:100C6000BE016F5F7F4FF80186819781F70119956B
:100C7000D80116964D915C911797B60114968D91F7
:100C80009C911597E6DCF80186819781DC01ED9156
:100C9000FC910488F589E02D199526960FB6F894F5
:100CA000DEBF0FBECDBFDF91CF911F910F91FF909F
:100CB000EF90DF90CF90BF90AF9008950F931F9368
:100CC000CF93DF93EC018B0181EC93E099838883D0
:100CD0005B8F4A8FCE014F96DAD71D8F0C8FDF9135
:100CE000CF911F910F9108950F9300E020E040E015
:100CF00060E081E794E0D1D20F910895CF93DF9324
:100D0000EC016C8D7D8D4F968AD764E873E087E7A0
:100D100094E037D36C8D7D8D4AE050E087E794E016
:100D2000DF91CF9124C4AF92BF92CF92DF92EF9226
:100D3000FF920F931F93CF93DF93CDB7DEB7289722
:100D40000FB6F894DEBF0FBECDBF8C017C018FE1E2
:100D5000E80EF11CC70115D76C01181619067CF5B1
:100D60006DE973E087E794E00CD34AE050E0B60108
:100D700087E794E0CFD36801AEE1CA0ED11CB7017A
:100D8000C60191DD5C010097D1F089EC93E09A8374
:100D90008983BC82AB82DE82CD82F886EF82F80145
:100DA000828D938DDC01ED91FC910190F081E02D1D
:100DB000BE016F5F7F4F1995B501C6013FDC2896D4
:100DC0000FB6F894DEBF0FBECDBFDF91CF911F915C
:100DD0000F91FF90EF90DF90CF90BF90AF9008956C
:100DE000FC01818D228D90E0805C9F4F821B9109D8
:100DF0008F7399270895FC01918D828D981731F09A
:100E0000828DE80FF11D858D90E008958FEF9FEFA3
:100E10000895FC01918D828D981761F0828DDF011C
:100E2000A80FB11D5D968C91928D9F5F9F73928FDD
:100E300090E008958FEF9FEF089580EC98E0892B64
:100E400039F080E090E0892B19F09AD1811125C00A
:100E500080E090E0892B41F080E090E0892B21F048
:100E60000E94000081111CC080E090E0892B41F0BD
:100E700080E090E0892B21F00E940000811113C0D6
:100E800080E090E0892BA1F080E090E0892B81F058
:100E90000E94000081110AC008950E940000D8CF6E
:100EA0000E940000E1CF0E940000EACF0C940000F5
:100EB0000895FC01848DDF01A80FB11DA35ABF4F17
:100EC0002C91848D90E001968F739927848FA68949
:100ED000B7892C93A089B1898C9180648C93938D70
:100EE000848D981306C00288F389E02D80818F7D60
:100EF00080830895CF93DF93EC01888D8823C1F020
:100F0000EA89FB89808185FD05C0A889B9898C9112
:100F100086FD0EC00FB607FCF5CF808185FFF2CFAE
:100F2000A889B9898C9185FFEDCFCE01C2DFE8CFCA
:100F3000DF91CF910895CF92DF92FF920F931F938D
:100F4000CF93DF931F92CDB7DEB76C01DC015B96C8
:100F50009C915B975C968C915C97981307C0509618
:100F6000ED91FC915197808185FD31C0F601038D93
:100F700010E00F5F1F4F0F731127F02EF601848DC5
:100F8000F81210C00FB607FCF9CFD6015096ED91BC
:100F9000FC915197808185FFF1CFC601698389DF7C
:100FA0006981ECCF838DE80FF11DE35AFF4F608319
:100FB000D6015B960C935B975296ED91FC915397FB
:100FC00080818062808381E058968C930DC0D60129
:100FD0005696ED91FC91579760835096ED91FC9158
:100FE000519780818064808381E090E00F90DF9151
:100FF000CF911F910F91FF90DF90CF900895BF92F6
:10100000CF92DF92EF92FF92CF93DF93EC016A01D0
:101010007B01B22EE889F98982E08083411581EE57
:10102000580761057105A1F060E079E08DE390E07B
:10103000A70196010E94711C2150310941095109F3
:101040005695479537952795211580E1380798F0F3
:10105000E889F989108260E874E88EE190E0A701E0
:1010600096010E94711C2150310941095109569580
:10107000479537952795EC85FD853083EE85FF856F
:101080002083188EEC89FD89B082EA89FB898081F2
:1010900080618083EA89FB89808188608083EA8916
:1010A000FB89808180688083EA89FB8980818F7DCC
:1010B0008083DF91CF91FF90EF90DF90CF90BF9032
:1010C00008951F920F920FB60F9211240BB60F9234
:1010D0002F938F939F93EF93FF93E0918704F09169
:1010E00088048081E0918D04F0918E0482FD12C00D
:1010F0009081809190048F5F8F732091910482176B
:1011000051F0E0919004F0E0E958FB4F958F809307
:10111000900401C08081FF91EF919F918F912F9159
:101120000F900BBE0F900FBE0F901F9018951F923F
:101130000F920FB60F9211240BB60F922F933F937D
:101140004F935F936F937F938F939F93AF93BF93CF
:10115000EF93FF9387E794E0ACDEFF91EF91BF91AF
:10116000AF919F918F917F916F915F914F913F913F
:101170002F910F900BBE0F900FBE0F901F901895E0
:1011800087E794E02DDE21E0892B09F420E0822F0F
:10119000089510927A041092790488EE93E0A0E00A
:1011A000B0E080937B0490937C04A0937D04B09383
:1011B0007E0481ED93E0909378048093770485EC2E
:1011C00090E0909384048093830484EC90E0909367
:1011D00086048093850480EC90E09093880480934B
:1011E000870481EC90E090938A048093890482ECD8
:1011F00090E090938C0480938B0486EC90E0909325
:101200008E0480938D041092900410929104109299
:101210009204109293040895AF92BF92CF92DF92FE
:10122000EF92FF920F931F93CF93DF936C017B019B
:10123000C0E0D0E000E010E0F601EC0FFD1F4AE056
:1012400050E06281C70188D15C016EE2C7019AD08B
:101250008A0D9B1D080F191F2196C330D10561F718
:101260004AE050E0F6016581C70176D1800F911FF9
:10127000DF91CF911F910F91FF90EF90DF90CF9072
:10128000BF90AF90089521EE33E0FC0131832083BD
:10129000128213821482158208950F93FC0181EE4D
:1012A00093E09183808362834383248305830F913A
:1012B000089521EE33E0FC0131832083FB0140815E
:1012C000518162817381FC014283538364837583FE
:1012D0000895FB014081518162817381FC01428349
:1012E000538364837583089581EE93E0909315058D
:1012F0008093140510921605109217051092180588
:10130000109219050895CF92DF92EF92FF920F93FA
:101310001F93CF93DF936C017A01EB01E60EF71E6A
:1013200000E010E0CE15DF0561F06991D601ED9186
:10133000FC910190F081E02DC6011995080F191F4D
:10134000F1CFC801DF91CF911F910F91FF90EF90E6
:10135000DF90CF9008956115710581F0DB010D904C
:101360000020E9F7AD0141505109461B570BDC0144
:10137000ED91FC910280F381E02D199480E090E0E2
:101380000895E9CFDC01ED91FC910190F081E02D11
:1013900019940F931F93CF93DF93EC016DE0F2DF6D
:1013A0008C016AE0CE01EEDF800F911FDF91CF91BB
:1013B0001F910F9108950F931F93CF93DF93EC012B
:1013C000CADF8C01CE01E5DF800F911FDF91CF9145
:1013D0001F910F9108958F929F92AF92BF92CF92DB
:1013E000DF92EF92FF920F931F93CF93DF93CDB7CE
:1013F000DEB7A1970FB6F894DEBF0FBECDBF7C015C
:10140000C42EE52FCB01D22E19A221E02D1510F00C
:101410002AE0D22E8E010F5D1F4F8D2C912CA12C16
:10142000B12C6C2D7E2FA50194010E94711C8C2D76
:10143000D29E80191124015011098A3014F4805D64
:1014400001C0895CF80180832115310541055105F2
:1014500021F0C22EE32FCA01E4CFB801C7017BDF20
:10146000A1960FB6F894DEBF0FBECDBFDF91CF912E
:101470001F910F91FF90EF90DF90CF90BF90AF90B2
:101480009F908F900895CF92DF92EF92FF920F93EB
:101490001F93CF93DF93EC016A017B012115310586
:1014A00079F4E881F9810190F081E02D642FDF91DA
:1014B000CF911F910F91FF90EF90DF90CF901994F3
:1014C0002A303105D9F477FF18C06DE25BDF8C015B
:1014D00044275527BA014C195D096E097F092AE096
:1014E000CE0179DF800F911FDF91CF911F910F9176
:1014F000FF90EF90DF90CF9008952AE0B701A6010A
:10150000CE01DF91CF911F910F91FF90EF90DF906F
:10151000CF9061CF0F931F93CF93DF93EC019A018C
:10152000AB01662757FD6095762FADDF8C01CE01AC
:1015300030DF800F911FDF91CF911F910F910895A0
:101540002115310541F4DC01ED91FC910190F08110
:10155000E02D642F19943FCF9A01462F50E060E0B0
:1015600070E0EECF9A01AB0160E070E0E9CF0F933D
:101570001F93CF93DF93EC019A01AB0160E070E021
:10158000DFDF8C01CE0105DF800F911FDF91CF914E
:101590001F910F9108950F931F93CF93DF93EC0149
:1015A000A3D0688779878A879B87E881F98106803D
:1015B000F781E02DCE01199597FF14C095D00885CD
:1015C00019852A853B85601B710B820B930B0C815F
:1015D0001D812E813F81601771078207930728F3D1
:1015E0008FEF9FEFDF91CF911F910F910895CF92D1
:1015F000DF92EF92FF920F931F93CF93DF937C01C3
:101600006A01EB0100E010E00C151D0541F0C70177
:10161000C2DF97FD04C089930F5F1F4FF5CFC8014C
:10162000DF91CF911F910F91FF90EF90DF90CF90BE
:1016300008950895ADD0FDDF0E94D801CDE1D7E037
:101640000E94FE012097E1F3F8DBFACF0C94D91C3D
:101650000C94711D1F920F920FB60F9211242F93AD
:101660003F938F939F93AF93BF9380911B0590916E
:101670001C05A0911D05B0911E0530911A0523E0AF
:10168000230F2D3720F40196A11DB11D05C026E8BA
:10169000230F0296A11DB11D20931A0580931B05EF
:1016A00090931C05A0931D05B0931E0580911F0506
:1016B00090912005A0912105B09122050196A11DD0
:1016C000B11D80931F0590932005A0932105B09331
:1016D0002205BF91AF919F918F913F912F910F90D4
:1016E0000FBE0F901F9018952FB7F89460911B05AF
:1016F00070911C0580911D0590911E052FBF0895C6
:101700003FB7F89480911F0590912005A091210585
:10171000B091220526B5A89B05C02F3F19F0019670
:10172000A11DB11D3FBF6627782F892F9A2F620F09
:10173000711D811D911D42E0660F771F881F991F43
:101740004A95D1F70895CF92DF92EF92FF92CF930F
:10175000DF936B017C01D4DFEB01C114D104E10400
:10176000F10479F039D1CCDF6C1B7D0B683E7340FE
:10177000A0F381E0C81AD108E108F108C851DC4F94
:10178000ECCFDF91CF91FF90EF90DF90CF90089555
:10179000789484B5826084BD84B5816084BD85B54C
:1017A000826085BD85B5816085BDEEE6F0E0808113
:1017B00081608083E1E8F0E0108280818260808334
:1017C000808181608083E0E8F0E0808181608083B7
:1017D000E1EBF0E0808184608083E0EBF0E08081E9
:1017E00081608083E1E9F0E0808182608083808194
:1017F00081608083E0E9F0E0808181608083E1EABC
:10180000F0E0808182608083808181608083E0EA73
:10181000F0E0808181608083E1E2F1E0808182609C
:101820008083808181608083E0E2F1E0808181605B
:101830008083EAE7F0E08081846080838081826039
:101840008083808181608083808180688083109222
:10185000C100089590E0FC013197E231F10508F0F4
:101860004CC0EE58FF4F0C94AF1C809180008F77D6
:1018700003C0809180008F7D8093800008958091C7
:101880008000877FF9CF84B58F7702C084B58F7DC4
:1018900084BD08958091B0008F7703C08091B0001F
:1018A0008F7D8093B0000895809190008F7707C05E
:1018B000809190008F7D03C080919000877F8093FE
:1018C000900008958091A0008F7707C08091A000BC
:1018D0008F7D03C08091A000877F8093A000089532
:1018E000809120018F7707C0809120018F7D03C0F8
:1018F00080912001877F809320010895CF93DF930B
:1019000090E0FC01E25BFE4F2491FC01EC56FE4F9F
:101910008491882349F190E0880F991FFC01EC50D5
:10192000FE4FA591B49186529E4FFC01C591D49172
:101930009FB7611108C0F8948C91209582238C93F5
:10194000888182230AC0623051F4F8948C91322F3E
:10195000309583238C938881822B888304C0F894EC
:101960008C91822B8C939FBFDF91CF9108950F9321
:101970001F93CF93DF931F92CDB7DEB7282F30E0B0
:10198000F901E85FFE4F8491F901E25BFE4F14918B
:10199000F901EC56FE4F04910023C1F0882319F0A1
:1019A000698358DF6981E02FF0E0EE0FFF1FE652F8
:1019B000FE4FA591B4919FB7F8948C91611103C02B
:1019C0001095812301C0812B8C939FBF0F90DF91D5
:1019D000CF911F910F9108950895DC01ED91FC9135
:1019E000008CF18DE02D199421EE33E0FC01318360
:1019F0002083FB014189528963897489FC014283F8
:101A00005383648375830895FC01858996890895BD
:101A1000FC01818D928D0895CF93DF931F92CDB7F6
:101A2000DEB76983DC01ED91FC910280F381E02D4A
:101A300041E050E0BE016F5F7F4F19950F90DF913D
:101A4000CF910895CF93DF93EC01898D9A8D892BE7
:101A500041F0E881F9810680F781E02DCE011995EA
:101A6000F4CFDF91CF910895CF93DF93EC018C8574
:101A7000883059F0D9D2EC85F0E0EE0FFF1FEF5C13
:101A8000FA4F1182108288E08C87DF91CF91089500
:101A9000FC01108E178A6E5F7F4F848586C3FC0120
:101AA0008485A6C3CF93DF93EC019A018F89988D2B
:101AB000AB01BC018C854ED32F89388D280F391F7F
:101AC000388F2F8BDF91CF9108950F931F93CF9372
:101AD000DF931F92CDB7DEB78C01FC01818D928D13
:101AE000892B51F041E050E0BE016F5F7F4F84854C
:101AF000E4D2181619061CF08FEF9FEF08C0F8010A
:101B0000818D928D0197928F818F898190E00F90C6
:101B1000DF91CF911F910F910895CF93DF93EC0147
:101B2000898D9A8D009719F48FEF9FEF0FC048179A
:101B3000590708F0AC018C85C0D218161906A4F715
:101B4000298D3A8D281B390B3A8F298FDF91CF9140
:101B50000895CF93DF931F92CDB7DEB7FC01218D9F
:101B6000328D232B41F0BE016F5F7F4F8485E5D21C
:101B7000898190E002C08FEF9FEF0F90DF91CF91AE
:101B800008950F931F93CF93DF93CDB7DEB72897B8
:101B90000FB6F894DEBF0FBECDBF8C01DC01ED9116
:101BA000FC910284F385E02D1995F801648589E4A0
:101BB00095E033D4892B31F148E050E0BE016F5FEE
:101BC0007F4FD8011C968C9178D218161906E4F430
:101BD000BE016F5F7F4FC8010F967BDB8D8190E068
:101BE000982F88272E81820F911DF801968B858B67
:101BF0008F8190E0982F88272885820F911D928FE2
:101C0000818F02C080E090E028960FB6F894DEBF86
:101C10000FBECDBFDF91CF911F910F910895CF924D
:101C2000DF92EF92FF920F931F93CF93DF93EC011C
:101C30006B018C85883009F543E0E42E40E4F42EF6
:101C400000E010E0C70186D3811102C00C8708C0F4
:101C50008831E1F30F5F1F4FF3940830110591F7BE
:101C60008C85883051F0DE86CD861A8E198E20E064
:101C7000A60162E0E5D181E001C080E0DF91CF9173
:101C80001F910F91FF90EF90DF90CF900895FC018E
:101C90001382128248EE53E060E070E04483558383
:101CA0006683778387EE93E09183808388E08487DF
:101CB000CF010F96E8CACF92DF92EF92FF920F9377
:101CC0001F93CF93DF93CDB7DEB7AF970FB6F894DE
:101CD000DEBF0FBECDBF7C018B016A01CE01019634
:101CE000D2DACE010996D3DFCE018A96CCDA69E248
:101CF00075E0CE0184963DD1BE016C5D7F4FCE0173
:101D000001960E940919AE01465D5F4FB801CE01F0
:101D100001960E946D1B81309105C1F4D701ED91B0
:101D2000FC910088F189E02D81EE93E09DA38CA3C6
:101D30000CA51DA52EA53FA50EA31FA328A739A757
:101D4000A601BE016C5D7F4FC7011995AF960FB616
:101D5000F894DEBF0FBECDBFDF91CF911F910F91E1
:101D6000FF90EF90DF90CF9008950F9300E020E078
:101D700040E060E083E295E090DA0F91089544E05E
:101D800050E0BC0181E090E0ABC244E050E0BC0117
:101D900085E090E0A5C244E050E0BC018FE090E017
:101DA0009FC2AF92BF92CF92DF92EF92FF920F93BA
:101DB0001F93CF93DF9300D000D0CDB7DEB76C0177
:101DC0005B0182E690E042DC8C0182E6F801119230
:101DD0008A95E9F7C801895B9F4F59DFF6011783A0
:101DE000068389E495E04AD246E050E0B50189E0F7
:101DF00090E076D200E020E040E060E0CE01019685
:101E00004CDACE010396C7DF10EAE12E1FE0F12E77
:101E100000E010E020E63AEE40E050E0B501F601C7
:101E2000868197810E9400188C018130910551F5BF
:101E3000F60166817781CE01019644D4CE010396E6
:101E4000AADFF60166817781CE01019651D4CE01D9
:101E5000039695DFF60166817781CE0101963DD428
:101E6000CE01039692DFF60166817781CE0101965D
:101E70004AD44B815C816D817E81F601428353831C
:101E800064837583C80126960FB6F894DEBF0FBE33
:101E9000CDBFDF91CF911F910F91FF90EF90DF9019
:101EA000CF90BF90AF900895EF92FF920F931F9342
:101EB000CF93DF9300D000D0CDB7DEB78C01FC010B
:101EC000868197810097A9F10E9443187C01823096
:101ED000910521F084E0E816F10469F5F8016681C6
:101EE0007781CE010196EED3CE01039654DFF8013F
:101EF00066817781CE010196FBD3CE0103963FDF49
:101F0000F80166817781CE010196E7D3CE01039671
:101F10003CDFF80166817781CE010196F4D34B81D5
:101F20005C816D817E81F801428353836483758374
:101F300002C0E12CF12CC70126960FB6F894DEBF43
:101F40000FBECDBFDF91CF911F910F91FF90EF900A
:101F50000895CF93DF93EC0196D9BE016E5F7F4F5A
:101F600044E050E08FE090E0DDD2CE01DF91CF91F0
:101F7000089521EE33E0FC0131832083FB0142818F
:101F8000538164817581FC0142835383648375832B
:101F900008950F9300E020E040E060E081E495E0E8
:101FA0007CD989E295E00F916EC990E0982F88273F
:101FB00044E050E0845F9F4B93C190E0805C9F4F72
:101FC000982F8827860F971FC5C162E070E0F5CF74
:101FD0009B0190E0805C9F4F982F8827642F820F91
:101FE000931F2EC1CF93DF93C82FD62F472F64E0C6
:101FF00070E0EEDF4D2F65E070E08C2FDF91CF9128
:10200000E7CF462F62E070E0E3CFCF93DF93C82F96
:10201000D62F472F60E170E0DBDF4D2F61E170E0EC
:102020008C2FDF91CF91D4CFCF93C82F40E150E0D8
:10203000682F89E495E031D36FEF8C2FCF91E1CFFA
:10204000EF92FF921F93CF93DF931F921F92CDB712
:10205000DEB7182F7A018FEF860F853028F5812F94
:102060002A836983E1DF2A816981462F422B60E060
:1020700070E0812FADDFE114F10411F0B7010AC067
:1020800060914705709148056F5F7F4F70934805D9
:1020900060934705812FA6DF41E050E0612F89E47E
:1020A00095E0FBD281E001C080E00F900F90DF91BE
:1020B000CF911F91FF90EF900895DF92EF92FF92E2
:1020C0000F931F93CF93DF93D82E7B018A01682F44
:1020D00089E495E0A2D1EC01009791F463E070E00F
:1020E0008D2D6BDF843101F18823F1F0C1E0D0E068
:1020F0008C3111F4C0E0D0E0D195C195D10914C064
:10210000081719070CF4E8011C161D066CF400E012
:102110009E01A7016D2D89E495E073D240E450E063
:102120006D2D89E495E0B9D2CE01DF91CF911F9159
:102130000F91FF90EF90DF9008950F93AB0101E0B6
:1021400021E030E0682F89E495E05BD281E090E007
:102150000F910895BF92CF92DF92EF92FF920F936B
:102160001F93CF93DF93B82E7B016A01E901682F9B
:1021700089E495E021D18C179D0728F46B2D89E423
:1021800095E01AD1EC018E019601A7016B2D89E42F
:1021900095E05DD1CE01DF91CF911F910F91FF901E
:1021A000EF90DF90CF90BF9008951F93CF93DF9370
:1021B000182FFB01EA018081811109C08181811101
:1021C00006C08281811103C08381882359F0209742
:1021D00049F0BF01812FE9DEBE01812F16DF81E0CA
:1021E00090E002C080E090E0DF91CF911F910895D0
:1021F000CF93C82F40E250E0682F89E495E04DD29C
:102200008C2FE3DE84FD0AC08C2FDFDE83FFF8CF46
:1022100068E18C2FF6DE80E090E005C060E18C2F55
:10222000F0DE81E090E0CF9108958EBD00000DB406
:1022300007FEFDCF8EB508952C9808952C9A089529
:102240001F93CF93DF931F921F92CDB7DEB7182F46
:102250006A839983F1DF8981E8DF812FE6DF80E8F7
:10226000E4DF81E0E2DF6A81862FDFDFE7DF81E004
:102270000F900F90DF91CF911F9108950F931F93AF
:10228000CF93DF938C016CE271E080E090E05BDA49
:102290000E943B1C249A60E880E090E0D1DFCFE10F
:1022A000D0E462E0CE01CCDF62E0CE010197C8DF6E
:1022B000D395CF3128E4D207A1F7F80180E090E868
:1022C000819391939C01305C37872687985F8115B5
:1022D00020EC9207A9F7DF91CF911F910F910895FC
:1022E000CF92DF92EF92FF920F931F93CF93DF93E2
:1022F00000D0CDB7DEB7F82E8A016A837B8399833D
:102300009BDF898192DF8F2D90DFC80188279F771F
:10231000892F80688ADF802F88DF6A81C62E7B81C3
:10232000D72E7601E00EF11ECE14DF0429F0F6015F
:1023300081916F017ADFF8CF81DFC8010F900F9094
:102340000F90DF91CF911F910F91FF90EF90DF9051
:10235000CF9008951F93CF93DF931F92CDB7DEB731
:10236000182F998369DF898160DF812F5EDF80E02C
:102370005CDF81E05ADF80E058DF89835FDF89819D
:102380000F90DF91CF911F9108951F93CF93DF930B
:10239000182F60E270E011DEC82FD0E0DC2FCC27D0
:1023A00061E270E0812F09DE9E01280F311DC90115
:1023B000DF91CF911F910895FF920F931F93CF93B9
:1023C000DF93F62EC0E0D0E08F2DDFDF8C01009789
:1023D00019F08F2DDADFEC01C017D107A9F7CE0174
:1023E000DF91CF911F910F91FF9008951F93CF938D
:1023F000DF93182F66E270E0E0DDC82FD0E0DC2F1D
:10240000CC2767E270E0812FD8DD9E01280F311DB7
:10241000C901DF91CF911F910895FF920F931F93F0
:10242000CF93DF93F62EC0E0D0E08F2DDFDF8C015D
:10243000009719F08F2DDADFEC01C017D107A9F74B
:10244000CE01DF91CF911F910F91FF9008956F9270
:102450007F929F92AF92BF92CF92DF92EF92FF92C4
:102460000F931F93CF93DF931F92CDB7DEB7D82E74
:10247000962E7A01590164E270E0892D99839DDDE1
:10248000C82E65E270E0892D98DDE80EF11C2C2D38
:1024900030E0322F2227E20EF31E970137706D2CA9
:1024A0009981792E690C711C690C711CD301ED9115
:1024B000FC91E20FF31FC901800F911F81309840FA
:1024C00098F0C12CB8E0DB2EC21AD30AA601B501E0
:1024D000CF0106DFA8014C195D09B5016C0D7D1D0A
:1024E000F3018081918103C0A801B501CF01F8DE1D
:1024F000E00EF11E4F2D64E270E0892D69DD4E2D56
:1025000065E270E0892D0F90DF91CF911F910F91BF
:10251000FF90EF90DF90CF90BF90AF909F907F9013
:102520006F9056CDCF92DF92EF92FF920F931F9351
:10253000CF93DF9300D0CDB7DEB7F82E8A016A8340
:102540007B83998379DE898170DE8F2D6EDEC801F1
:1025500088279F77892F69DE802F67DE6A81C62EE4
:102560007B81D72E7601E00EF11ECE14DF0431F010
:1025700080E05BDEF60181936F01F7CF5FDEC8017B
:102580000F900F900F90DF91CF911F910F91FF90BF
:10259000EF90DF90CF900895CF92DF92EF92FF926D
:1025A0000F931F93CF93DF9369015770EC01C60F10
:1025B000D11DC60FD11D88899989840F951F9A0155
:1025C000200F311F2130384088F0E12C28E0F22E16
:1025D000E41AF50AA701B601A5DFA8014E195F09A3
:1025E000B6016E0D7F1D8889998902C0A801B601C8
:1025F000DF91CF911F910F91FF90EF90DF90CF90DF
:1026000091CF8F929F92AF92BF92CF92DF92EF9233
:10261000FF920F931F93CF93DF936C01962E5A0175
:102620007901802E68E270E0892DC7DCC82F69E24D
:1026300070E0892DC2DCD0E0DC2FCC27C80FD11D83
:1026400087019501AE01692DC601A6DF811018C072
:10265000CE0DDF1D4D2F68E270E0892DB9DC4C2FC7
:1026600069E270E0892DDF91CF911F910F91FF906A
:10267000EF90DF90CF90BF90AF909F908F90A8CCBD
:10268000DF91CF911F910F91FF90EF90DF90CF904E
:10269000BF90AF909F908F900895CF93C62F61E029
:1026A00070E08C2F95DC61E070E08C2F86DC81116E
:1026B000FACFCF9108950E9624E1FC0111922A954C
:1026C000E9F70895CF93DF93EC01625F7F4F0E949B
:1026D0005909CE01DF91CF910895CF93DF93EC019B
:1026E0006E5E7F4F0E945909CE01DF91CF91089510
:1026F000CF93DF93EC016A5E7F4F0E945909CE01B0
:10270000DF91CF910895CF93DF93EC01625E7F4F0D
:102710000E945909CE01DF91CF91089580E3FB011A
:1027200080833296842F82958F7090E1899F401923
:1027300011244A3014F4405D01C0495C429388235F
:1027400011F0482FEFCF08950F9300E020E040E014
:1027500060E089E695E00E944D090F9108956F921F
:102760007F928F929F92AF92BF92CF92DF92EF9221
:10277000FF920F931F93CF93DF93CDB7DEB7AC9744
:102780000FB6F894DEBF0FBECDBF7C01862EB42EEF
:10279000A52E20E2922ECE0101966C01FC01292D7E
:1027A00011922A95E9F70FEF2FEF4FEF6FEF869613
:1027B0000E944D0981EE93E09AA389A389A59AA569
:1027C000ABA5BCA58BA39CA3ADA3BEA38701095B4E
:1027D0001F4F43E450E0BE016F5D7F4FC80158D9E1
:1027E000019609F4B7C081E089838A8386E0782E58
:1027F0007B821C82F70164817581868197810E94AA
:10280000B51C6D837E838F839887A986BA8680E8FE
:1028100090E09C878B874CE150E0B601C80142D91B
:10282000F601292D11922A95E9F7570188E0A80EA3
:10283000B11CF501D60101900D927A94E1F740E1C7
:1028400050E0B601C8012ED9F60111929A94E9F729
:1028500096E0692E712C40E250E0B601C80122D901
:10286000F1E06F1A710861147104A9F783E6898396
:1028700092E89A8393E59B838C8385E38D8381E043
:102880008E838F829DE3988797E099878A8786E079
:10289000F501DE011B9601900D928A95E1F78CE01F
:1028A000898B8A8B67E074E0CE0143960E94631E99
:1028B000F7014385BE01675E7F4FC7012FDFF70138
:1028C0004485BE01655E7F4FC70128DFF70145855E
:1028D000BE01635E7F4FC70121DF4EE150E0B601CC
:1028E000C801E0D8F3E08F121DC082E3898384E041
:1028F0008A83F70196859B8397859C8390899D8326
:1029000091899E8396E39F838887828D8987838DB3
:102910008A87848D8B87858D8C874CE050E0B6014B
:10292000C801C0D887E3898386E08A8391E09B83CE
:1029300093E09C838D838FE08E838AE38F838BE388
:1029400088878FEF898749E050E0B601C801AAD88F
:10295000C801A5D8AC960FB6F894DEBF0FBECDBFA8
:10296000DF91CF911F910F91FF90EF90DF90CF906B
:10297000BF90AF909F908F907F906F9008952F920F
:102980003F924F925F926F927F928F929F92AF92FF
:10299000BF92CF92DF92EF92FF920F931F93CF934C
:1029A000DF93CDB7DEB7E3970FB6F894DEBF0FBE67
:1029B000CDBF7C012A013B0169010E94740B4B01D0
:1029C0005C018701095B1F4FC801DBD81816190687
:1029D00094F00E94740B681979098A099B094616BC
:1029E000570668067906E0F062E370E080E090E068
:1029F0000E94A30BE9CF42E250E0BE016F5F7F4F20
:102A0000C8018BD88981823031F4F8018589968993
:102A10008334910539F019A6C80114D889A55FC17E
:102A20008FEF5DC16D817E818F8198859ED74B012F
:102A30005C01F601608371838283938346E050E0FA
:102A4000B701685F7F4FCE014D960E94561E892BBD
:102A500099F4F70180819181A281B381881699064A
:102A6000AA06BB0648F084819581A681B7818815A6
:102A70009905AA05BB0528F4C8010E94220D80E033
:102A80002EC189899A89AB89BC89F7018687978786
:102A9000A08BB18B3EECC32ED12CC80116D8F1E02F
:102AA000CF1AD108C114D104C1F719A6C701829663
:102AB0009BA78AA7F701B696FDA7ECA708969FA744
:102AC0008EA73C976F018E9699AB88AB3897FBAB7E
:102AD000EAAB5701F6E1AF0EB11C47018EE1880E5B
:102AE000911CC8010E94080D181619060CF094CF0D
:102AF000C8010E94650D8333910509F4C7C0F4F441
:102B000081309105B9F11CF4892B59F3D8C0833079
:102B10009105C1F1069709F0D2C0C8010E94650D68
:102B20003C0144E050E0B401C8010E948D0D212C0D
:102B3000312C7724F4E06F1A71083FC08A33910575
:102B400009F47AC03CF48533910561F0C69709F425
:102B50003FC0B5C08B33910509F483C08F3F910509
:102B600001F2ADC0C8010E94650DC8010E94650D4B
:102B700089A7B7CFC8010E94650D44E050E06AA95B
:102B80007BA936C0C8010E94650D3C0144E050E0BD
:102B9000B501C8010E948D0D212C312C772494E0C1
:102BA000691A7108261437040CF09BCFC8010E94E3
:102BB000650DEFEF2E1A3E0AF5CF261437040CF000
:102BC00090CFC8010E94650D8FEF281A380AF5CF03
:102BD000C8010E94650D782EF701828D938DA48D1A
:102BE000B58D892B8A2B8B2B39F444E050E0B6014C
:102BF000C8010E948D0D75CFE8A9F9A92080318008
:102C000042805380B601CE0183960E9459098DA15E
:102C10009EA1AFA1B8A582159305A405B50529F31A
:102C2000212C312C721409F45CCFC8010E94650D6F
:102C3000FFEF2F1A3F0AF6CFC8010E94650D44E04E
:102C400050E06CA57DA5C8010E948D0DF70166A11D
:102C500077A180A591A589D666A377A380A791A720
:102C600040CFC8010E94650D44E050E06EA57FA5ED
:102C7000C8010E948D0DF70162A573A584A595A5D5
:102C800074D662A773A784A795A72BCFC8010E940B
:102C9000650D44E050E06AA57BA5C8010E948D0D3A
:102CA000F70162A173A184A195A15FD662A373A36A
:102CB00084A395A366A777A780AB91AB12CFC80179
:102CC0000E94650D382E612C712C361409F409CF41
:102CD000C8010E94650DFFEF6F1A7F0AF6CFE396D9
:102CE0000FB6F894DEBF0FBECDBFDF91CF911F911D
:102CF0000F91FF90EF90DF90CF90BF90AF909F909B
:102D00008F907F906F905F904F903F902F9008959D
:102D10002F923F924F925F926F927F928F929F92EB
:102D2000AF92BF92CF92DF92EF92FF920F931F93D9
:102D3000CF93DF93CDB7DEB728970FB6F894DEBFF9
:102D40000FBECDBF8C0120ED37E040E050E061E0E8
:102D500070E080E090E074D5D80114966D937D9377
:102D60008D939C931797F80160837183828393837B
:102D7000C801895B9F4F9E838D8364E470E00E944D
:102D80000F0E882309F421C10E94740B6B017C0192
:102D9000812C912C312C580196E4A90EB11CD8013C
:102DA000DE96B887AF8338EE432E33E0532E612C86
:102DB000712C42E0242EF5018081833009F4F3C0A8
:102DC00081111DC0F80184819581A681B78101968A
:102DD000A11DB11D84839583A683B7830E94740BC4
:102DE0006C197D098E099F09A30192017AD5A90169
:102DF00061E0C801B4DC81E0D5018C93B6C08430B9
:102E0000E1F4F80184819581A681B7810196A11D25
:102E1000B11D84839583A683B7830E94740B6C19BC
:102E20007D098E099F09A30192015BD5A90163E089
:102E3000C80195DCD5012C9298C0813041F5EF8115
:102E4000F88540815181628173819E012F5F3F4FE0
:102E5000C80195DD382EF2E08F1387C089819A81F1
:102E6000AB81BC81F80184839583A683B7830E94DC
:102E7000740B6C197D098E099F09A301920131D54C
:102E8000A90163E0C8016BDCD5013C9274C08230BB
:102E900009F06BC0EF81F8854081518162817381B7
:102EA0009E012F5F3F4FC8016ADD382EF5E08F137A
:102EB00056C0E3E0D501EC93F80182A193A1A4A14F
:102EC000B5A1892B8A2B8B2B41F484E893E0A0E0F9
:102ED000B0E082A393A3A4A3B5A3F80186A197A110
:102EE000A0A5B1A5892B8A2B8B2B61F482A193A17C
:102EF000A4A1B5A1B695A7959795879586A397A305
:102F0000A0A7B1A7D8019A964D915D916D917C9142
:102F10009D9796968D919D910D90BC91A02D452BDE
:102F2000462B472B59F4AC01BD01440F551F661FBA
:102F3000771FF80142A753A764A775A7F80186A7D2
:102F400097A7A0ABB1AB82A593A5A4A5B5A582AB6D
:102F500093ABA4ABB5AB88248394912C0CC0F6E062
:102F60008F1303C0D5011C9206C0BFEF3B1203C0F4
:102F7000F5011082312CF1E08F16910409F41BCF7A
:102F80000E94740B6C197D098E099F09D801DA968D
:102F90002D913D914D915C91DD972617370748079C
:102FA000590708F008CF8D819E810E94340DF801E9
:102FB00084819581A681B7810196A11DB11D84836D
:102FC0009583A683B783C40102C080E090E0289671
:102FD0000FB6F894DEBF0FBECDBFDF91CF911F912A
:102FE0000F91FF90EF90DF90CF90BF90AF909F90A8
:102FF0008F907F906F905F904F903F902F900895AB
:10300000CF92DF92EF92FF920F931F93CF93DF93B4
:10301000EC016B011AA21BA21CA21DA21EA21FA2E0
:1030200018A619A61AA61BA61CA61DA61EAA1FAA8C
:1030300018AE19AE2AAF3BAF4CAF5DAFFC01FE96A8
:10304000E082F182028313838C01085F1F4F86E0C8
:10305000F80111928A95E9F7CE012DDB86E0F601A1
:10306000D80101900D928A95E1F7FE01EA5BFF4FCE
:103070001082CE01DF91CF911F910F91FF90EF90C1
:10308000DF90CF9045CE8F929F92AF92BF92CF921A
:10309000DF92EF92FF920F931F93CF93DF93EC0198
:1030A0000E94740B6B017C018EA99FA9A8ADB9ADDC
:1030B0008E010E5B1F4F892B8A2B8B2B09F48BC043
:1030C000F80180819181A281B381A7019601281B1B
:1030D000390B4A0B5B0BCA01B90157FD4DC04601C4
:1030E000570138EE830E33E0931EA11CB11C28EE6D
:1030F00033E040E050E017D4861A970AA80AB90ACC
:10310000F80180829182A282B382DA01C90101961C
:10311000A11DB11D4EA55FA568A979A98C019D01CE
:10312000000F111F221F331F40175107620773073B
:103130002CF41EA61FA618AA19AA08C0481B590BD2
:103140006A0B7B0B4EA75FA768AB79AB4AA95BA95B
:103150006CA97DA940175107620773072CF41AAABE
:103160001BAA1CAA1DAA08C0481B590B6A0B7B0B83
:103170004AAB5BAB6CAB7DAB8E010A5B1F4FF801BA
:103180008081833079F48EA59FA5A8A9B9A91816C6
:1031900019061A061B0634F084E08083CE01B8DDE0
:1031A000019602C080E090E0F8012081233011F008
:1031B00021111EC04AA95BA96CA97DA91416150688
:1031C00016061706ACF0F8011082CE0174DACE01B3
:1031D0009FDD03960DC0D701C60188519C4FAF4FAC
:1031E000BF4FF80180839183A283B38380E090E096
:1031F000CEAADFAAE8AEF9AEDF91CF911F910F9171
:10320000FF90EF90DF90CF90BF90AF909F908F9006
:103210000895FB014281538164817581FC014283E1
:10322000538364837583178216820895CF93FB01BD
:1032300081918111FDCFFB0180E090E020E030E042
:10324000CAE06191662309F12430310564F56E32DC
:1032500071F48F3F910509F034F5DA01A20FB31F25
:1032600012968C932F5F3F4F80E090E0EACFDC0115
:10327000CA9FC001CB9F900D1124772767FD7095E1
:1032800060537109860F971FDCCF8F3F910509F0BE
:1032900054F4243031053CF4FA01E20FF31F828329
:1032A00081E090E002C080E090E0CF9108950F931C
:1032B00000E020E040E060E08FE695E00E944D09EC
:1032C0000F910895AF92BF92CF92DF92EF92FF924B
:1032D0000F931F93CF93DF9300D0CDB7DEB76C0170
:1032E0007B010E94740BF601778366838601085F79
:1032F0001F4FB6016A5F7F4F42E050E0C8010E9455
:10330000520D81E090E09A83898342E050E0BE0153
:103310006F5F7F4FC8010E94520D80E091E09A8359
:10332000898342E050E0BE016F5F7F4FC8010E9479
:10333000520D1A82198242E050E0BE016F5F7F4F4A
:10334000C8010E94520D42E050E0BE016F5F7F4F06
:10335000C8010E94520D42E050E0BE016F5F7F4FF6
:10336000C8010E94520D6701F6018081882311F186
:10337000F7016F018191811115C05601AE18BF0888
:103380001A141B0494F4AB8241E050E0BE016D5F5F
:103390007F4FC8010E94520DA501B701C8010E94CC
:1033A000520D03C08E3229F7E8CF7601FFEFEF1AF6
:1033B000FF0ADACF1B8241E050E0BE016D5F7F4F14
:1033C000C8010E94520DE12CFF24F394FA82E98295
:1033D00042E050E0BE016F5F7F4FC8010E94520D76
:1033E000FA82E98242E050E0BE016F5F7F4FC80180
:1033F0000E94520D81E090E00F900F900F90DF91AE
:10340000CF911F910F91FF90EF90DF90CF90BF90E1
:10341000AF9008954F925F926F927F928F929F929A
:10342000AF92BF92CF92DF92EF92FF920F931F93D2
:10343000CF93DF93CDB7DEB763970FB6F894DEBFB7
:103440000FBECDBF7C015B016A010E94740B2B0192
:103450003C018701085F1F4F4501A12CB12CC80119
:103460000E94C10D1816190694F00E94740B64197D
:1034700075098609970986169706A806B906D0F039
:1034800062E370E080E090E00E94A30BE8CFF701D8
:103490004281538164817581818D928DA38DB48D1C
:1034A000481759076A077B0741F4858D968DC597A4
:1034B00021F406C08FEF9FEFF9C08EEF9FEFF6C0AB
:1034C000C8010E94080D0C970CF4EEC04CE050E0CF
:1034D000BE016F5F7F4FC8010E948D0D8B819C8163
:1034E0009827892798279A8B898BF70146815781DE
:1034F00029813A814217530711F497FD06C0C8018C
:103500000E94220D8CEF9FEFD1C08F709270892B9B
:1035100031F0C8010E94220D8BEF9FEFC7C0AF8032
:10352000B884BA24AB24BA24A114B10419F0E12C54
:10353000F12C23C0C8010E94220D8AEF9FEFB6C074
:1035400041E050E0BE01635F7F4FC8010E948D0DD6
:103550008D8581111BC08D858111F2CFC8010E941C
:10356000650DC8010E94650DC8010E94650DC80166
:103570000E94650DFFEFEF1AFF0A8D819E8198274B
:1035800089279827E816F906D8F20AC08D859FEF9B
:10359000980F9D878823F9F2C8010E94650DF6CF28
:1035A000E12CF12C41E050E0BE016D5E7F4FC8017F
:1035B0000E948D0D8B89982F907C61F4882371F087
:1035C0008B899FEF980F9B8B882341F0C8010E9445
:1035D000650DF6CFC8010E94650D1B8A8B8981118C
:1035E000E1CF42E050E0BE01615F7F4FC8010E9421
:1035F0008D0D42E050E0BE01635F7F4FC8010E9425
:103600008D0DC8010E94650DC8010E94650DC8019D
:103610000E94650DC8010E94650D42E050E0BE01A8
:103620006F5E7F4FC8010E948D0D8F85988981152F
:10363000914029F48D859E858115914019F0812C4A
:10364000912C16C089899A898115944031F0C8015E
:103650000E94220D87EF9FEF29C0B6016E5F7F4F5A
:1036600044E050E0C8010E948D0D81E090E01EC052
:1036700089899A899827892798278816990638F47E
:10368000C8010E94650D2FEF821A920AF1CF8FEFC9
:10369000E81AF80AEA14FB0409F084CFC8010E9472
:1036A000220D86EF9FEF02C08DEF9FEF63960FB65E
:1036B000F894DEBF0FBECDBFDF91CF911F910F9168
:1036C000FF90EF90DF90CF90BF90AF909F908F9042
:1036D0007F906F905F904F9008958F929F92AF92DE
:1036E000BF92CF92DF92EF92FF920F931F93CF93EF
:1036F000DF9300D000D0CDB7DEB78C015B016A014B
:1037000095DD4C01009709F05DC0F80142815381BD
:10371000648175818091710590917205A091730506
:10372000B0917405481759076A077B0709F44EC022
:103730000E94740B7801F8E0EF0EF11C6F70772790
:103740007C5FC7010E940F0E813009F043C081EEFB
:1037500093E09A838983F80182819381A481B58162
:103760008B839C83AD83BE8345E350E0BE016F5FD6
:103770007F4FC7010E94480D892B19F4812C912C91
:103780001DC0B501C8019EDD892BC1F3C7010E9490
:103790004F0D892B99F333E0A32EB12CA60168E8D5
:1037A00073E1C80137DE4C01F1E0AF1AB108A11492
:1037B000B10421F08F3F2FEF920781F3C7010E94E0
:1037C000340D08C088248394912C04C09EEF892E68
:1037D00099249A94C40126960FB6F894DEBF0FBEC2
:1037E000CDBFDF91CF911F910F91FF90EF90DF90B0
:1037F000CF90BF90AF909F908F900895CF93DF931D
:1038000000D01F92CDB7DEB79B01AC0161157105E9
:103810008105910559F069833A834B835C833AD2E1
:1038200029813A814B815C817ED003C060E070E0E9
:10383000CB010F900F900F900F90DF91CF910895D3
:10384000CF92DF92EF92FF926B017C0162177307B8
:10385000840795075CF4CA01B9016C197D098E09CA
:103860009F09CCDF6C0D7D1D8E1D9F1DFF90EF907D
:10387000DF90CF900895CF93CFB7F89480917505DE
:10388000811127C0E9ECF1E08491E3E8F1E0949143
:10389000E82FF0E0EE0FFF1FEC50FE4FA591B49122
:1038A0008C91892321F461E085E30E94B70C61E0EB
:1038B00085E30E947E0C8CB580618CBD8CB58064E4
:1038C0008CBD61E084E30E947E0C61E083E30E9492
:1038D0007E0C809175058F5F80937505CFBFCF916A
:1038E0000895A1E21A2EAA1BBB1BFD010DC0AA1F41
:1038F000BB1FEE1FFF1FA217B307E407F50720F059
:10390000A21BB30BE40BF50B661F771F881F991FD3
:103910001A9469F760957095809590959B01AC011C
:10392000BD01CF010895052E97FB16F400940FD02A
:1039300057FD05D0D6DF07FC02D046F408C05095ED
:103940004095309521953F4F4F4F5F4F089590958B
:103950008095709561957F4F8F4F9F4F0895EE0F23
:10396000FF1F0590F491E02D199469279627692788
:1039700078278727782708950DD0A59F900DB49FAD
:10398000900DA49F800D911D112408950790F6912C
:10399000E02D1994A29FB001B39FC001A39F700DA9
:1039A000811D1124911DB29F700D811D1124911D47
:1039B0000895CF93DF938230910510F482E090E078
:1039C000E0917805F091790520E030E0A0E0B0E0EA
:1039D000309739F14081518148175907B8F048179D
:1039E000590771F482819381109729F013969C9363
:1039F0008E9312972CC0909379058093780527C0F9
:103A00002115310531F04217530718F0A901DB01E8
:103A100001C0EF019A01BD01DF010280F381E02DB9
:103A2000D7CF21153105F9F0281B390B243031058A
:103A300080F48A819B816115710521F0FB019383DC
:103A4000828304C09093790580937805FE013296B5
:103A500044C0FE01E20FF31F81939193225031097C
:103A6000398328833AC02091760530917705232B3E
:103A700041F42091020230910302309377052093A4
:103A8000760520910002309101022115310541F4A3
:103A90002DB73EB74091040250910502241B350B0F
:103AA000E0917605F0917705E217F307A0F42E1B5D
:103AB0003F0B2817390778F0AC014E5F5F4F241792
:103AC000350748F04E0F5F1F5093770540937605FA
:103AD0008193919302C0E0E0F0E0CF01DF91CF91BC
:103AE0000895CF93DF93009709F487C0FC013297C4
:103AF00013821282C0917805D0917905209781F4C4
:103B000020813181280F391F8091760590917705AA
:103B10008217930779F5F0937705E09376056DC0EA
:103B2000DE0120E030E0AE17BF0750F412964D9151
:103B30005C9113979D014115510509F1DA01F3CF0D
:103B4000B383A28340815181840F951F8A179B07FD
:103B500071F48D919C911197840F951F029691831A
:103B6000808312968D919C91139793838283211564
:103B7000310529F4F0937905E09378053EC0D90129
:103B80001396FC93EE9312974D915D91A40FB51F80
:103B9000EA17FB0779F480819181840F951F0296C3
:103BA000D90111969C938E938281938113969C9355
:103BB0008E931297E0E0F0E08A819B81009719F0E4
:103BC000FE01EC01F9CFCE01029628813981820FE6
:103BD000931F20917605309177052817390769F4EE
:103BE000309729F4109279051092780502C013825B
:103BF0001282D0937705C0937605DF91CF91089517
:103C00008F929F92AF92BF92CF92DF92EF92FF92EC
:103C1000CF93DF93EC01688179818A819B81611563
:103C200071058105910521F464E279ED8BE597E05A
:103C30002DE133EF41E050E076DE49015A019B016E
:103C4000AC01A7EAB1E498DE6B017C01ACEEB4EF05
:103C5000A501940141D0C60ED71EE81EF91EF7FE3D
:103C600006C081E0C81AD108E10880E8F80AC882D5
:103C7000D982EA82FB82C701B6019F77DF91CF919B
:103C8000FF90EF90DF90CF90BF90AF909F908F907C
:103C90000895B6CF86E092E0B3CF609306027093AA
:103CA000070280930802909309020895FB01DC014A
:103CB00004C08D910190801921F441505040C8F703
:103CC000881B990B0895FB01DC0101900D920020E7
:103CD000E1F70895B7FF50CE4FDE821B930B089596
:103CE00012E0C6E2D2E000E005C022970109FE0121
:103CF0000BBF4CDEC832D10780E00807B1F7F8945B
:023D0000FFCFF3
:103D020000007A05200001000000DEADBEFFFF04C6
:103D120041636B48616E646C65723A3A4F6E4D65F1
:103D2200737361676500000000004C015374617297
:103D320074696E672E2E2E0052656164792E0A0018
:103D4200556E6578706563746564207061636B6538
:103D5200742073697A652000556E657870656374A6
:103D6200656420486170696C694D6573736167654C
:103D72002076657273696F6E20005365744D6573AA
:103D82007361676500436F6E6669677572654D653D
:103D920073736167650051756572794D65737361FF
:103DA20067650000000000190232021F020A0200C9
:103DB20000000004022B021F020A0200000000039E
:103DC200031503D3030A0200000000E802FA0239D5
:103DD200020A0200000000460180011F0218024888
:103DE20075623A3A4F6E4D65737361676500000004
:103DF2000000EE04417474656D7074696E6720741E
:103E02006F206F627461696E204448435020616480
:103E120064726573732E004661696C656420746F09
:103E22002061637175697265204448435020616462
:103E320064726573732C20747279696E672061678E
:103E420061696E20696E2035207365636F6E6473DD
:103E52002E004163717569726564204448435020A5
:103E6200616464726573733A20005564704D6573C2
:103E720073616765436F6E746578743A3A52657020
:103E82006C797C005564704368616E6E656C3A3A79
:103E92004F70656E7C20706F72743A2000556470AA
:103EA2004368616E6E656C3A3A506F6C6C7C7265F9
:103EB20063767C206E62797465733A20000000009C
:103EC200007E06930600000000F605FA05000000D9
:103ED200009B078309F0060907FB067A070000002A
:103EE200000C09000000000C0D520D080D650DA913
:103EF2000D220D0F0E340D480D5B0E4F0DC10D8DB1
:0E3F02000DED0CF40C040D57495A6E65740059
:00000001FF
